{
  "contractName": "ERC721SafeHolderUpgradeable",
  "abi": [
    {
      "inputs": [
        {
          "internalType": "address",
          "name": "operator",
          "type": "address"
        },
        {
          "internalType": "address",
          "name": "",
          "type": "address"
        },
        {
          "internalType": "uint256",
          "name": "",
          "type": "uint256"
        },
        {
          "internalType": "bytes",
          "name": "",
          "type": "bytes"
        }
      ],
      "name": "onERC721Received",
      "outputs": [
        {
          "internalType": "bytes4",
          "name": "",
          "type": "bytes4"
        }
      ],
      "stateMutability": "nonpayable",
      "type": "function"
    }
  ],
  "bytecode": "0x608060405234801561001057600080fd5b5061034d806100206000396000f3fe608060405234801561001057600080fd5b506004361061002b5760003560e01c8063150b7a0214610030575b600080fd5b61004a60048036038101906100459190610106565b610060565b6040516100579190610190565b60405180910390f35b600063150b7a0260e01b9050949350505050565b6000610087610082846101d0565b6101ab565b90508281526020810184848401111561009f57600080fd5b6100aa848285610269565b509392505050565b6000813590506100c1816102e9565b92915050565b600082601f8301126100d857600080fd5b81356100e8848260208601610074565b91505092915050565b60008135905061010081610300565b92915050565b6000806000806080858703121561011c57600080fd5b600061012a878288016100b2565b945050602061013b878288016100b2565b935050604061014c878288016100f1565b925050606085013567ffffffffffffffff81111561016957600080fd5b610175878288016100c7565b91505092959194509250565b61018a81610213565b82525050565b60006020820190506101a56000830184610181565b92915050565b60006101b56101c6565b90506101c18282610278565b919050565b6000604051905090565b600067ffffffffffffffff8211156101eb576101ea6102a9565b5b6101f4826102d8565b9050602081019050919050565b600061020c8261023f565b9050919050565b60007fffffffff0000000000000000000000000000000000000000000000000000000082169050919050565b600073ffffffffffffffffffffffffffffffffffffffff82169050919050565b6000819050919050565b82818337600083830152505050565b610281826102d8565b810181811067ffffffffffffffff821117156102a05761029f6102a9565b5b80604052505050565b7f4e487b7100000000000000000000000000000000000000000000000000000000600052604160045260246000fd5b6000601f19601f8301169050919050565b6102f281610201565b81146102fd57600080fd5b50565b6103098161025f565b811461031457600080fd5b5056fea264697066735822122035aa266c9237192aca94c91f8e9b15d77c82366e0fffe162c4e94d5a20fc1f0564736f6c63430008010033",
  "immutableReferences": {},
  "source": "// SPDX-License-Identifier: MIT\r\n\r\n\r\npragma solidity ^0.8.0;\r\n\r\nimport \"@openzeppelin/contracts/token/ERC20/ERC20.sol\";\r\nimport \"@openzeppelin/contracts/token/ERC721/IERC721Receiver.sol\";\r\nimport \"@openzeppelin/contracts/token/ERC721/IERC721.sol\";\r\nimport \"./TokenBase.sol\";\r\n\r\n\r\ninterface IERC721ReceiverUpgradeable {\r\n    /**\r\n     * @dev Whenever an {IERC721} `tokenId` token is transferred to this contract via {IERC721-safeTransferFrom}\r\n     * by `operator` from `from`, this function is called.\r\n     *\r\n     * It must return its Solidity selector to confirm the token transfer.\r\n     * If any other value is returned or the interface is not implemented by the recipient, the transfer will be reverted.\r\n     *\r\n     * The selector can be obtained in Solidity with `IERC721.onERC721Received.selector`.\r\n     */\r\n    function onERC721Received(address operator, address from, uint256 tokenId, bytes calldata data) external returns (bytes4);\r\n}\r\n\r\n\r\ncontract ERC721SafeHolderUpgradeable is IERC721ReceiverUpgradeable {\r\n    /**\r\n     * @dev See {IERC721Receiver-onERC721Received}.\r\n     *\r\n     * Always returns `IERC721Receiver.onERC721Received.selector`.\r\n     */\r\n    function onERC721Received(\r\n        address operator,\r\n        address,\r\n        uint256,\r\n        bytes memory\r\n    ) public virtual override returns (bytes4) {\r\n        return this.onERC721Received.selector;\r\n    }\r\n}\r\n\r\n// TokenEth is NFTStableCoin\r\ncontract TokenEth is TokenBase , ERC721SafeHolderUpgradeable {\r\n    address assetAddress;\r\n    uint256 constant base = 10**18;\r\n    uint[] public AllTokenId;\r\n    constructor() TokenBase(\"ETH Token\", \"ETK\") {}  // The name of NFT stable coin\r\n\r\n    function getAllTokenId() public view returns (uint[] memory) {\r\n        return AllTokenId;\r\n    }\r\n\r\n    function isTokenIdInThisContract(uint tokenId) public view returns (bool){\r\n        return (IERC721(assetAddress).ownerOf(tokenId) == address(this));\r\n    }\r\n\r\n    function setAssetAddress(address _assetAddress) external {\r\n        require(msg.sender == admin, \"only admin\");\r\n        assetAddress = _assetAddress;\r\n    }\r\n\r\n    function getAssetAddres() public view returns (address){\r\n        return assetAddress;\r\n    }\r\n\r\n    function swapForNftStableCoin(address to , uint tokenId) public {\r\n        require(assetAddress != address(0) , 'assetAddress not set');\r\n        //ERC721 nft = ERC721(assetAddress);\r\n        require(IERC721(assetAddress).getApproved(tokenId)==address(this) , 'NFT not approved');\r\n        IERC721(assetAddress).safeTransferFrom(msg.sender, address(this), tokenId);\r\n        \r\n        //  NFT NFTuser\r\n        AllTokenId.push(tokenId);\r\n        _mint(to , base*1);\r\n\r\n    }\r\n\r\n    function redeemNftStableCoinToNft(address owner , uint tokenId) public{\r\n        require(assetAddress != address(0) , 'assetAddress not set');\r\n        //ERC721 nft = ERC721(assetAddress);\r\n        IERC721(assetAddress).safeTransferFrom(address(this), msg.sender, tokenId);\r\n\r\n        // NFTNFT\r\n        for (uint i=0; i<AllTokenId.length ; i++){\r\n            if (AllTokenId[i] ==  tokenId){\r\n                delete AllTokenId[i];\r\n                break;\r\n            }\r\n        }\r\n        _burn(owner , base*1);\r\n    }\r\n\r\n    function NFTflashloan(uint tokenId) external{\r\n        require(isTokenIdInThisContract(tokenId), \"Contract don't have this NFT.\");\r\n        IERC721(assetAddress).safeTransferFrom(address(this), msg.sender, tokenId);\r\n\r\n        (bool success,) = msg.sender.call(\r\n            abi.encodeWithSignature(\r\n                \"receiveFlashLoan(uint256)\",\r\n                tokenId\r\n            )\r\n        );\r\n        require(success, \"External call failed\");\r\n\r\n        require(isTokenIdInThisContract(tokenId), \"Flash loan NFT not paid back\");        \r\n    }\r\n\r\n\r\n}",
  "sourcePath": "C:\\Users\\Samuel Cheng\\Desktop\\Solidity-EVM-Dev-Batch-1-HW\\graduation_project\\bsc-eth-bridge\\contracts\\TokenEth.sol",
  "compiler": {
    "name": "solc",
    "version": "0.8.1+commit.df193b15.Emscripten.clang"
  },
  "schemaVersion": "3.4.5",
  "updatedAt": "2022-02-27T09:13:40.418Z",
  "devdoc": {
    "kind": "dev",
    "methods": {
      "onERC721Received(address,address,uint256,bytes)": {
        "details": "See {IERC721Receiver-onERC721Received}. Always returns `IERC721Receiver.onERC721Received.selector`."
      }
    },
    "version": 1
  },
  "userdoc": {
    "kind": "user",
    "methods": {},
    "version": 1
  }
}