{
  "contractName": "MyNFT",
  "abi": [
    {
      "inputs": [],
      "stateMutability": "nonpayable",
      "type": "constructor"
    },
    {
      "anonymous": false,
      "inputs": [
        {
          "indexed": true,
          "internalType": "address",
          "name": "owner",
          "type": "address"
        },
        {
          "indexed": true,
          "internalType": "address",
          "name": "approved",
          "type": "address"
        },
        {
          "indexed": true,
          "internalType": "uint256",
          "name": "tokenId",
          "type": "uint256"
        }
      ],
      "name": "Approval",
      "type": "event"
    },
    {
      "anonymous": false,
      "inputs": [
        {
          "indexed": true,
          "internalType": "address",
          "name": "owner",
          "type": "address"
        },
        {
          "indexed": true,
          "internalType": "address",
          "name": "operator",
          "type": "address"
        },
        {
          "indexed": false,
          "internalType": "bool",
          "name": "approved",
          "type": "bool"
        }
      ],
      "name": "ApprovalForAll",
      "type": "event"
    },
    {
      "anonymous": false,
      "inputs": [
        {
          "indexed": true,
          "internalType": "bytes32",
          "name": "role",
          "type": "bytes32"
        },
        {
          "indexed": true,
          "internalType": "bytes32",
          "name": "previousAdminRole",
          "type": "bytes32"
        },
        {
          "indexed": true,
          "internalType": "bytes32",
          "name": "newAdminRole",
          "type": "bytes32"
        }
      ],
      "name": "RoleAdminChanged",
      "type": "event"
    },
    {
      "anonymous": false,
      "inputs": [
        {
          "indexed": true,
          "internalType": "bytes32",
          "name": "role",
          "type": "bytes32"
        },
        {
          "indexed": true,
          "internalType": "address",
          "name": "account",
          "type": "address"
        },
        {
          "indexed": true,
          "internalType": "address",
          "name": "sender",
          "type": "address"
        }
      ],
      "name": "RoleGranted",
      "type": "event"
    },
    {
      "anonymous": false,
      "inputs": [
        {
          "indexed": true,
          "internalType": "bytes32",
          "name": "role",
          "type": "bytes32"
        },
        {
          "indexed": true,
          "internalType": "address",
          "name": "account",
          "type": "address"
        },
        {
          "indexed": true,
          "internalType": "address",
          "name": "sender",
          "type": "address"
        }
      ],
      "name": "RoleRevoked",
      "type": "event"
    },
    {
      "anonymous": false,
      "inputs": [
        {
          "indexed": true,
          "internalType": "address",
          "name": "from",
          "type": "address"
        },
        {
          "indexed": true,
          "internalType": "address",
          "name": "to",
          "type": "address"
        },
        {
          "indexed": true,
          "internalType": "uint256",
          "name": "tokenId",
          "type": "uint256"
        }
      ],
      "name": "Transfer",
      "type": "event"
    },
    {
      "inputs": [],
      "name": "DEFAULT_ADMIN_ROLE",
      "outputs": [
        {
          "internalType": "bytes32",
          "name": "",
          "type": "bytes32"
        }
      ],
      "stateMutability": "view",
      "type": "function"
    },
    {
      "inputs": [],
      "name": "MINTER_ROLE",
      "outputs": [
        {
          "internalType": "bytes32",
          "name": "",
          "type": "bytes32"
        }
      ],
      "stateMutability": "view",
      "type": "function"
    },
    {
      "inputs": [
        {
          "internalType": "address",
          "name": "to",
          "type": "address"
        },
        {
          "internalType": "uint256",
          "name": "tokenId",
          "type": "uint256"
        }
      ],
      "name": "approve",
      "outputs": [],
      "stateMutability": "nonpayable",
      "type": "function"
    },
    {
      "inputs": [
        {
          "internalType": "address",
          "name": "owner",
          "type": "address"
        }
      ],
      "name": "balanceOf",
      "outputs": [
        {
          "internalType": "uint256",
          "name": "",
          "type": "uint256"
        }
      ],
      "stateMutability": "view",
      "type": "function"
    },
    {
      "inputs": [
        {
          "internalType": "uint256",
          "name": "tokenId",
          "type": "uint256"
        }
      ],
      "name": "getApproved",
      "outputs": [
        {
          "internalType": "address",
          "name": "",
          "type": "address"
        }
      ],
      "stateMutability": "view",
      "type": "function"
    },
    {
      "inputs": [
        {
          "internalType": "bytes32",
          "name": "role",
          "type": "bytes32"
        }
      ],
      "name": "getRoleAdmin",
      "outputs": [
        {
          "internalType": "bytes32",
          "name": "",
          "type": "bytes32"
        }
      ],
      "stateMutability": "view",
      "type": "function"
    },
    {
      "inputs": [
        {
          "internalType": "bytes32",
          "name": "role",
          "type": "bytes32"
        },
        {
          "internalType": "address",
          "name": "account",
          "type": "address"
        }
      ],
      "name": "grantRole",
      "outputs": [],
      "stateMutability": "nonpayable",
      "type": "function"
    },
    {
      "inputs": [
        {
          "internalType": "bytes32",
          "name": "role",
          "type": "bytes32"
        },
        {
          "internalType": "address",
          "name": "account",
          "type": "address"
        }
      ],
      "name": "hasRole",
      "outputs": [
        {
          "internalType": "bool",
          "name": "",
          "type": "bool"
        }
      ],
      "stateMutability": "view",
      "type": "function"
    },
    {
      "inputs": [
        {
          "internalType": "address",
          "name": "owner",
          "type": "address"
        },
        {
          "internalType": "address",
          "name": "operator",
          "type": "address"
        }
      ],
      "name": "isApprovedForAll",
      "outputs": [
        {
          "internalType": "bool",
          "name": "",
          "type": "bool"
        }
      ],
      "stateMutability": "view",
      "type": "function"
    },
    {
      "inputs": [],
      "name": "name",
      "outputs": [
        {
          "internalType": "string",
          "name": "",
          "type": "string"
        }
      ],
      "stateMutability": "view",
      "type": "function"
    },
    {
      "inputs": [
        {
          "internalType": "uint256",
          "name": "tokenId",
          "type": "uint256"
        }
      ],
      "name": "ownerOf",
      "outputs": [
        {
          "internalType": "address",
          "name": "",
          "type": "address"
        }
      ],
      "stateMutability": "view",
      "type": "function"
    },
    {
      "inputs": [
        {
          "internalType": "bytes32",
          "name": "role",
          "type": "bytes32"
        },
        {
          "internalType": "address",
          "name": "account",
          "type": "address"
        }
      ],
      "name": "renounceRole",
      "outputs": [],
      "stateMutability": "nonpayable",
      "type": "function"
    },
    {
      "inputs": [
        {
          "internalType": "bytes32",
          "name": "role",
          "type": "bytes32"
        },
        {
          "internalType": "address",
          "name": "account",
          "type": "address"
        }
      ],
      "name": "revokeRole",
      "outputs": [],
      "stateMutability": "nonpayable",
      "type": "function"
    },
    {
      "inputs": [
        {
          "internalType": "address",
          "name": "from",
          "type": "address"
        },
        {
          "internalType": "address",
          "name": "to",
          "type": "address"
        },
        {
          "internalType": "uint256",
          "name": "tokenId",
          "type": "uint256"
        }
      ],
      "name": "safeTransferFrom",
      "outputs": [],
      "stateMutability": "nonpayable",
      "type": "function"
    },
    {
      "inputs": [
        {
          "internalType": "address",
          "name": "from",
          "type": "address"
        },
        {
          "internalType": "address",
          "name": "to",
          "type": "address"
        },
        {
          "internalType": "uint256",
          "name": "tokenId",
          "type": "uint256"
        },
        {
          "internalType": "bytes",
          "name": "_data",
          "type": "bytes"
        }
      ],
      "name": "safeTransferFrom",
      "outputs": [],
      "stateMutability": "nonpayable",
      "type": "function"
    },
    {
      "inputs": [
        {
          "internalType": "address",
          "name": "operator",
          "type": "address"
        },
        {
          "internalType": "bool",
          "name": "approved",
          "type": "bool"
        }
      ],
      "name": "setApprovalForAll",
      "outputs": [],
      "stateMutability": "nonpayable",
      "type": "function"
    },
    {
      "inputs": [],
      "name": "symbol",
      "outputs": [
        {
          "internalType": "string",
          "name": "",
          "type": "string"
        }
      ],
      "stateMutability": "view",
      "type": "function"
    },
    {
      "inputs": [
        {
          "internalType": "uint256",
          "name": "tokenId",
          "type": "uint256"
        }
      ],
      "name": "tokenURI",
      "outputs": [
        {
          "internalType": "string",
          "name": "",
          "type": "string"
        }
      ],
      "stateMutability": "view",
      "type": "function"
    },
    {
      "inputs": [
        {
          "internalType": "address",
          "name": "from",
          "type": "address"
        },
        {
          "internalType": "address",
          "name": "to",
          "type": "address"
        },
        {
          "internalType": "uint256",
          "name": "tokenId",
          "type": "uint256"
        }
      ],
      "name": "transferFrom",
      "outputs": [],
      "stateMutability": "nonpayable",
      "type": "function"
    },
    {
      "inputs": [
        {
          "internalType": "address",
          "name": "account",
          "type": "address"
        },
        {
          "internalType": "uint256",
          "name": "tokenId",
          "type": "uint256"
        }
      ],
      "name": "mint",
      "outputs": [],
      "stateMutability": "payable",
      "type": "function"
    },
    {
      "inputs": [
        {
          "internalType": "address",
          "name": "to",
          "type": "address"
        },
        {
          "internalType": "uint256[]",
          "name": "tokenIds",
          "type": "uint256[]"
        }
      ],
      "name": "batchMint",
      "outputs": [],
      "stateMutability": "payable",
      "type": "function"
    },
    {
      "inputs": [
        {
          "internalType": "bytes4",
          "name": "interfaceId",
          "type": "bytes4"
        }
      ],
      "name": "supportsInterface",
      "outputs": [
        {
          "internalType": "bool",
          "name": "",
          "type": "bool"
        }
      ],
      "stateMutability": "view",
      "type": "function"
    }
  ],
  "bytecode": "0x60806040523480156200001157600080fd5b506040518060400160405280600581526020017f4d794e46540000000000000000000000000000000000000000000000000000008152506040518060400160405280600581526020017f4d794e465400000000000000000000000000000000000000000000000000000081525081600090805190602001906200009692919062000265565b508060019080519060200190620000af92919062000265565b505050620000e47f9f2df0fed2c77648de5860a4cc508cd0818c85b8b8a1ab4ceeef8d981c8956a633620000ea60201b60201c565b6200037a565b620000fc82826200010060201b60201c565b5050565b620001128282620001f260201b60201c565b620001ee5760016006600084815260200190815260200160002060000160008373ffffffffffffffffffffffffffffffffffffffff1673ffffffffffffffffffffffffffffffffffffffff16815260200190815260200160002060006101000a81548160ff021916908315150217905550620001936200025d60201b60201c565b73ffffffffffffffffffffffffffffffffffffffff168173ffffffffffffffffffffffffffffffffffffffff16837f2f8788117e7eff1d82e926ec794901d17c78024a50270940304540a733656f0d60405160405180910390a45b5050565b60006006600084815260200190815260200160002060000160008373ffffffffffffffffffffffffffffffffffffffff1673ffffffffffffffffffffffffffffffffffffffff16815260200190815260200160002060009054906101000a900460ff16905092915050565b600033905090565b828054620002739062000315565b90600052602060002090601f016020900481019282620002975760008555620002e3565b82601f10620002b257805160ff1916838001178555620002e3565b82800160010185558215620002e3579182015b82811115620002e2578251825591602001919060010190620002c5565b5b509050620002f29190620002f6565b5090565b5b8082111562000311576000816000905550600101620002f7565b5090565b600060028204905060018216806200032e57607f821691505b602082108114156200034557620003446200034b565b5b50919050565b7f4e487b7100000000000000000000000000000000000000000000000000000000600052602260045260246000fd5b61358d806200038a6000396000f3fe6080604052600436106101355760003560e01c80636352211e116100ab578063a22cb4651161006f578063a22cb4651461042e578063b88d4fde14610457578063c87b56dd14610480578063d5391393146104bd578063d547741f146104e8578063e985e9c51461051157610135565b80636352211e1461032157806370a082311461035e57806391d148541461039b57806395d89b41146103d8578063a217fddf1461040357610135565b8063248a9ca3116100fd578063248a9ca3146102315780632f2ff15d1461026e57806336568abe1461029757806340c10f19146102c057806342842e0e146102dc5780634684d7e91461030557610135565b806301ffc9a71461013a57806306fdde0314610177578063081812fc146101a2578063095ea7b3146101df57806323b872dd14610208575b600080fd5b34801561014657600080fd5b50610161600480360381019061015c91906124c4565b61054e565b60405161016e9190612959565b60405180910390f35b34801561018357600080fd5b5061018c610560565b604051610199919061298f565b60405180910390f35b3480156101ae57600080fd5b506101c960048036038101906101c49190612516565b6105f2565b6040516101d691906128f2565b60405180910390f35b3480156101eb57600080fd5b5061020660048036038101906102019190612423565b610677565b005b34801561021457600080fd5b5061022f600480360381019061022a91906122c9565b61078f565b005b34801561023d57600080fd5b506102586004803603810190610253919061245f565b6107ef565b6040516102659190612974565b60405180910390f35b34801561027a57600080fd5b5061029560048036038101906102909190612488565b61080f565b005b3480156102a357600080fd5b506102be60048036038101906102b99190612488565b610838565b005b6102da60048036038101906102d59190612423565b6108bb565b005b3480156102e857600080fd5b5061030360048036038101906102fe91906122c9565b6108fc565b005b61031f600480360381019061031a9190612393565b61091c565b005b34801561032d57600080fd5b5061034860048036038101906103439190612516565b6109bd565b60405161035591906128f2565b60405180910390f35b34801561036a57600080fd5b5061038560048036038101906103809190612264565b610a6f565b6040516103929190612bb1565b60405180910390f35b3480156103a757600080fd5b506103c260048036038101906103bd9190612488565b610b27565b6040516103cf9190612959565b60405180910390f35b3480156103e457600080fd5b506103ed610b92565b6040516103fa919061298f565b60405180910390f35b34801561040f57600080fd5b50610418610c24565b6040516104259190612974565b60405180910390f35b34801561043a57600080fd5b50610455600480360381019061045091906123e7565b610c2b565b005b34801561046357600080fd5b5061047e60048036038101906104799190612318565b610c41565b005b34801561048c57600080fd5b506104a760048036038101906104a29190612516565b610ca3565b6040516104b4919061298f565b60405180910390f35b3480156104c957600080fd5b506104d2610d4a565b6040516104df9190612974565b60405180910390f35b3480156104f457600080fd5b5061050f600480360381019061050a9190612488565b610d6e565b005b34801561051d57600080fd5b506105386004803603810190610533919061228d565b610d97565b6040516105459190612959565b60405180910390f35b600061055982610e2b565b9050919050565b60606000805461056f90612e90565b80601f016020809104026020016040519081016040528092919081815260200182805461059b90612e90565b80156105e85780601f106105bd576101008083540402835291602001916105e8565b820191906000526020600020905b8154815290600101906020018083116105cb57829003601f168201915b5050505050905090565b60006105fd82610ea5565b61063c576040517f08c379a000000000000000000000000000000000000000000000000000000000815260040161063390612b11565b60405180910390fd5b6004600083815260200190815260200160002060009054906101000a900473ffffffffffffffffffffffffffffffffffffffff169050919050565b6000610682826109bd565b90508073ffffffffffffffffffffffffffffffffffffffff168373ffffffffffffffffffffffffffffffffffffffff1614156106f3576040517f08c379a00000000000000000000000000000000000000000000000000000000081526004016106ea90612b51565b60405180910390fd5b8073ffffffffffffffffffffffffffffffffffffffff16610712610f11565b73ffffffffffffffffffffffffffffffffffffffff16148061074157506107408161073b610f11565b610d97565b5b610780576040517f08c379a000000000000000000000000000000000000000000000000000000000815260040161077790612a91565b60405180910390fd5b61078a8383610f19565b505050565b6107a061079a610f11565b82610fd2565b6107df576040517f08c379a00000000000000000000000000000000000000000000000000000000081526004016107d690612b71565b60405180910390fd5b6107ea8383836110b0565b505050565b600060066000838152602001908152602001600020600101549050919050565b610818826107ef565b61082981610824610f11565b611317565b61083383836113b4565b505050565b610840610f11565b73ffffffffffffffffffffffffffffffffffffffff168173ffffffffffffffffffffffffffffffffffffffff16146108ad576040517f08c379a00000000000000000000000000000000000000000000000000000000081526004016108a490612b91565b60405180910390fd5b6108b78282611495565b5050565b7f9f2df0fed2c77648de5860a4cc508cd0818c85b8b8a1ab4ceeef8d981c8956a66108ed816108e8610f11565b611317565b6108f78383611577565b505050565b61091783838360405180602001604052806000815250610c41565b505050565b7f9f2df0fed2c77648de5860a4cc508cd0818c85b8b8a1ab4ceeef8d981c8956a661094e81610949610f11565b611317565b60005b82518110156109b7576109a484848381518110610997577f4e487b7100000000000000000000000000000000000000000000000000000000600052603260045260246000fd5b6020026020010151611577565b80806109af90612ef3565b915050610951565b50505050565b6000806002600084815260200190815260200160002060009054906101000a900473ffffffffffffffffffffffffffffffffffffffff169050600073ffffffffffffffffffffffffffffffffffffffff168173ffffffffffffffffffffffffffffffffffffffff161415610a66576040517f08c379a0000000000000000000000000000000000000000000000000000000008152600401610a5d90612ad1565b60405180910390fd5b80915050919050565b60008073ffffffffffffffffffffffffffffffffffffffff168273ffffffffffffffffffffffffffffffffffffffff161415610ae0576040517f08c379a0000000000000000000000000000000000000000000000000000000008152600401610ad790612ab1565b60405180910390fd5b600360008373ffffffffffffffffffffffffffffffffffffffff1673ffffffffffffffffffffffffffffffffffffffff168152602001908152602001600020549050919050565b60006006600084815260200190815260200160002060000160008373ffffffffffffffffffffffffffffffffffffffff1673ffffffffffffffffffffffffffffffffffffffff16815260200190815260200160002060009054906101000a900460ff16905092915050565b606060018054610ba190612e90565b80601f0160208091040260200160405190810160405280929190818152602001828054610bcd90612e90565b8015610c1a5780601f10610bef57610100808354040283529160200191610c1a565b820191906000526020600020905b815481529060010190602001808311610bfd57829003601f168201915b5050505050905090565b6000801b81565b610c3d610c36610f11565b8383611751565b5050565b610c52610c4c610f11565b83610fd2565b610c91576040517f08c379a0000000000000000000000000000000000000000000000000000000008152600401610c8890612b71565b60405180910390fd5b610c9d848484846118be565b50505050565b6060610cae82610ea5565b610ced576040517f08c379a0000000000000000000000000000000000000000000000000000000008152600401610ce490612b31565b60405180910390fd5b6000610cf761191a565b90506000815111610d175760405180602001604052806000815250610d42565b80610d2184611931565b604051602001610d32929190612894565b6040516020818303038152906040525b915050919050565b7f9f2df0fed2c77648de5860a4cc508cd0818c85b8b8a1ab4ceeef8d981c8956a681565b610d77826107ef565b610d8881610d83610f11565b611317565b610d928383611495565b505050565b6000600560008473ffffffffffffffffffffffffffffffffffffffff1673ffffffffffffffffffffffffffffffffffffffff16815260200190815260200160002060008373ffffffffffffffffffffffffffffffffffffffff1673ffffffffffffffffffffffffffffffffffffffff16815260200190815260200160002060009054906101000a900460ff16905092915050565b60007f7965db0b000000000000000000000000000000000000000000000000000000007bffffffffffffffffffffffffffffffffffffffffffffffffffffffff1916827bffffffffffffffffffffffffffffffffffffffffffffffffffffffff19161480610e9e5750610e9d82611ade565b5b9050919050565b60008073ffffffffffffffffffffffffffffffffffffffff166002600084815260200190815260200160002060009054906101000a900473ffffffffffffffffffffffffffffffffffffffff1673ffffffffffffffffffffffffffffffffffffffff1614159050919050565b600033905090565b816004600083815260200190815260200160002060006101000a81548173ffffffffffffffffffffffffffffffffffffffff021916908373ffffffffffffffffffffffffffffffffffffffff160217905550808273ffffffffffffffffffffffffffffffffffffffff16610f8c836109bd565b73ffffffffffffffffffffffffffffffffffffffff167f8c5be1e5ebec7d5bd14f71427d1e84f3dd0314c0f7b2291e5b200ac8c7c3b92560405160405180910390a45050565b6000610fdd82610ea5565b61101c576040517f08c379a000000000000000000000000000000000000000000000000000000000815260040161101390612a71565b60405180910390fd5b6000611027836109bd565b90508073ffffffffffffffffffffffffffffffffffffffff168473ffffffffffffffffffffffffffffffffffffffff16148061109657508373ffffffffffffffffffffffffffffffffffffffff1661107e846105f2565b73ffffffffffffffffffffffffffffffffffffffff16145b806110a757506110a68185610d97565b5b91505092915050565b8273ffffffffffffffffffffffffffffffffffffffff166110d0826109bd565b73ffffffffffffffffffffffffffffffffffffffff1614611126576040517f08c379a000000000000000000000000000000000000000000000000000000000815260040161111d906129f1565b60405180910390fd5b600073ffffffffffffffffffffffffffffffffffffffff168273ffffffffffffffffffffffffffffffffffffffff161415611196576040517f08c379a000000000000000000000000000000000000000000000000000000000815260040161118d90612a31565b60405180910390fd5b6111a1838383611bc0565b6111ac600082610f19565b6001600360008573ffffffffffffffffffffffffffffffffffffffff1673ffffffffffffffffffffffffffffffffffffffff16815260200190815260200160002060008282546111fc9190612d72565b925050819055506001600360008473ffffffffffffffffffffffffffffffffffffffff1673ffffffffffffffffffffffffffffffffffffffff16815260200190815260200160002060008282546112539190612c91565b92505081905550816002600083815260200190815260200160002060006101000a81548173ffffffffffffffffffffffffffffffffffffffff021916908373ffffffffffffffffffffffffffffffffffffffff160217905550808273ffffffffffffffffffffffffffffffffffffffff168473ffffffffffffffffffffffffffffffffffffffff167fddf252ad1be2c89b69c2b068fc378daa952ba7f163c4a11628f55a4df523b3ef60405160405180910390a4611312838383611bc5565b505050565b6113218282610b27565b6113b0576113468173ffffffffffffffffffffffffffffffffffffffff166014611bca565b6113548360001c6020611bca565b6040516020016113659291906128b8565b6040516020818303038152906040526040517f08c379a00000000000000000000000000000000000000000000000000000000081526004016113a7919061298f565b60405180910390fd5b5050565b6113be8282610b27565b6114915760016006600084815260200190815260200160002060000160008373ffffffffffffffffffffffffffffffffffffffff1673ffffffffffffffffffffffffffffffffffffffff16815260200190815260200160002060006101000a81548160ff021916908315150217905550611436610f11565b73ffffffffffffffffffffffffffffffffffffffff168173ffffffffffffffffffffffffffffffffffffffff16837f2f8788117e7eff1d82e926ec794901d17c78024a50270940304540a733656f0d60405160405180910390a45b5050565b61149f8282610b27565b156115735760006006600084815260200190815260200160002060000160008373ffffffffffffffffffffffffffffffffffffffff1673ffffffffffffffffffffffffffffffffffffffff16815260200190815260200160002060006101000a81548160ff021916908315150217905550611518610f11565b73ffffffffffffffffffffffffffffffffffffffff168173ffffffffffffffffffffffffffffffffffffffff16837ff6391f5c32d9c69d2a47ea670b442974b53935d1edc7fd64eb21e047a839171b60405160405180910390a45b5050565b600073ffffffffffffffffffffffffffffffffffffffff168273ffffffffffffffffffffffffffffffffffffffff1614156115e7576040517f08c379a00000000000000000000000000000000000000000000000000000000081526004016115de90612af1565b60405180910390fd5b6115f081610ea5565b15611630576040517f08c379a000000000000000000000000000000000000000000000000000000000815260040161162790612a11565b60405180910390fd5b61163c60008383611bc0565b6001600360008473ffffffffffffffffffffffffffffffffffffffff1673ffffffffffffffffffffffffffffffffffffffff168152602001908152602001600020600082825461168c9190612c91565b92505081905550816002600083815260200190815260200160002060006101000a81548173ffffffffffffffffffffffffffffffffffffffff021916908373ffffffffffffffffffffffffffffffffffffffff160217905550808273ffffffffffffffffffffffffffffffffffffffff16600073ffffffffffffffffffffffffffffffffffffffff167fddf252ad1be2c89b69c2b068fc378daa952ba7f163c4a11628f55a4df523b3ef60405160405180910390a461174d60008383611bc5565b5050565b8173ffffffffffffffffffffffffffffffffffffffff168373ffffffffffffffffffffffffffffffffffffffff1614156117c0576040517f08c379a00000000000000000000000000000000000000000000000000000000081526004016117b790612a51565b60405180910390fd5b80600560008573ffffffffffffffffffffffffffffffffffffffff1673ffffffffffffffffffffffffffffffffffffffff16815260200190815260200160002060008473ffffffffffffffffffffffffffffffffffffffff1673ffffffffffffffffffffffffffffffffffffffff16815260200190815260200160002060006101000a81548160ff0219169083151502179055508173ffffffffffffffffffffffffffffffffffffffff168373ffffffffffffffffffffffffffffffffffffffff167f17307eab39ab6107e8899845ad3d59bd9653f200f220920489ca2b5937696c31836040516118b19190612959565b60405180910390a3505050565b6118c98484846110b0565b6118d584848484611ec4565b611914576040517f08c379a000000000000000000000000000000000000000000000000000000000815260040161190b906129d1565b60405180910390fd5b50505050565b606060405180602001604052806000815250905090565b60606000821415611979576040518060400160405280600181526020017f30000000000000000000000000000000000000000000000000000000000000008152509050611ad9565b600082905060005b600082146119ab57808061199490612ef3565b915050600a826119a49190612ce7565b9150611981565b60008167ffffffffffffffff8111156119ed577f4e487b7100000000000000000000000000000000000000000000000000000000600052604160045260246000fd5b6040519080825280601f01601f191660200182016040528015611a1f5781602001600182028036833780820191505090505b5090505b60008514611ad257600182611a389190612d72565b9150600a85611a479190612f3c565b6030611a539190612c91565b60f81b818381518110611a8f577f4e487b7100000000000000000000000000000000000000000000000000000000600052603260045260246000fd5b60200101907effffffffffffffffffffffffffffffffffffffffffffffffffffffffffffff1916908160001a905350600a85611acb9190612ce7565b9450611a23565b8093505050505b919050565b60007f80ac58cd000000000000000000000000000000000000000000000000000000007bffffffffffffffffffffffffffffffffffffffffffffffffffffffff1916827bffffffffffffffffffffffffffffffffffffffffffffffffffffffff19161480611ba957507f5b5e139f000000000000000000000000000000000000000000000000000000007bffffffffffffffffffffffffffffffffffffffffffffffffffffffff1916827bffffffffffffffffffffffffffffffffffffffffffffffffffffffff1916145b80611bb95750611bb88261205b565b5b9050919050565b505050565b505050565b606060006002836002611bdd9190612d18565b611be79190612c91565b67ffffffffffffffff811115611c26577f4e487b7100000000000000000000000000000000000000000000000000000000600052604160045260246000fd5b6040519080825280601f01601f191660200182016040528015611c585781602001600182028036833780820191505090505b5090507f300000000000000000000000000000000000000000000000000000000000000081600081518110611cb6577f4e487b7100000000000000000000000000000000000000000000000000000000600052603260045260246000fd5b60200101907effffffffffffffffffffffffffffffffffffffffffffffffffffffffffffff1916908160001a9053507f780000000000000000000000000000000000000000000000000000000000000081600181518110611d40577f4e487b7100000000000000000000000000000000000000000000000000000000600052603260045260246000fd5b60200101907effffffffffffffffffffffffffffffffffffffffffffffffffffffffffffff1916908160001a90535060006001846002611d809190612d18565b611d8a9190612c91565b90505b6001811115611e76577f3031323334353637383961626364656600000000000000000000000000000000600f861660108110611df2577f4e487b7100000000000000000000000000000000000000000000000000000000600052603260045260246000fd5b1a60f81b828281518110611e2f577f4e487b7100000000000000000000000000000000000000000000000000000000600052603260045260246000fd5b60200101907effffffffffffffffffffffffffffffffffffffffffffffffffffffffffffff1916908160001a905350600485901c945080611e6f90612e66565b9050611d8d565b5060008414611eba576040517f08c379a0000000000000000000000000000000000000000000000000000000008152600401611eb1906129b1565b60405180910390fd5b8091505092915050565b6000611ee58473ffffffffffffffffffffffffffffffffffffffff166120c5565b1561204e578373ffffffffffffffffffffffffffffffffffffffff1663150b7a02611f0e610f11565b8786866040518563ffffffff1660e01b8152600401611f30949392919061290d565b602060405180830381600087803b158015611f4a57600080fd5b505af1925050508015611f7b57506040513d601f19601f82011682018060405250810190611f7891906124ed565b60015b611ffe573d8060008114611fab576040519150601f19603f3d011682016040523d82523d6000602084013e611fb0565b606091505b50600081511415611ff6576040517f08c379a0000000000000000000000000000000000000000000000000000000008152600401611fed906129d1565b60405180910390fd5b805181602001fd5b63150b7a0260e01b7bffffffffffffffffffffffffffffffffffffffffffffffffffffffff1916817bffffffffffffffffffffffffffffffffffffffffffffffffffffffff191614915050612053565b600190505b949350505050565b60007f01ffc9a7000000000000000000000000000000000000000000000000000000007bffffffffffffffffffffffffffffffffffffffffffffffffffffffff1916827bffffffffffffffffffffffffffffffffffffffffffffffffffffffff1916149050919050565b6000808273ffffffffffffffffffffffffffffffffffffffff163b119050919050565b60006120fb6120f684612bf1565b612bcc565b9050808382526020820190508285602086028201111561211a57600080fd5b60005b8581101561214a5781612130888261224f565b84526020840193506020830192505060018101905061211d565b5050509392505050565b600061216761216284612c1d565b612bcc565b90508281526020810184848401111561217f57600080fd5b61218a848285612e24565b509392505050565b6000813590506121a1816134e4565b92915050565b600082601f8301126121b857600080fd5b81356121c88482602086016120e8565b91505092915050565b6000813590506121e0816134fb565b92915050565b6000813590506121f581613512565b92915050565b60008135905061220a81613529565b92915050565b60008151905061221f81613529565b92915050565b600082601f83011261223657600080fd5b8135612246848260208601612154565b91505092915050565b60008135905061225e81613540565b92915050565b60006020828403121561227657600080fd5b600061228484828501612192565b91505092915050565b600080604083850312156122a057600080fd5b60006122ae85828601612192565b92505060206122bf85828601612192565b9150509250929050565b6000806000606084860312156122de57600080fd5b60006122ec86828701612192565b93505060206122fd86828701612192565b925050604061230e8682870161224f565b9150509250925092565b6000806000806080858703121561232e57600080fd5b600061233c87828801612192565b945050602061234d87828801612192565b935050604061235e8782880161224f565b925050606085013567ffffffffffffffff81111561237b57600080fd5b61238787828801612225565b91505092959194509250565b600080604083850312156123a657600080fd5b60006123b485828601612192565b925050602083013567ffffffffffffffff8111156123d157600080fd5b6123dd858286016121a7565b9150509250929050565b600080604083850312156123fa57600080fd5b600061240885828601612192565b9250506020612419858286016121d1565b9150509250929050565b6000806040838503121561243657600080fd5b600061244485828601612192565b92505060206124558582860161224f565b9150509250929050565b60006020828403121561247157600080fd5b600061247f848285016121e6565b91505092915050565b6000806040838503121561249b57600080fd5b60006124a9858286016121e6565b92505060206124ba85828601612192565b9150509250929050565b6000602082840312156124d657600080fd5b60006124e4848285016121fb565b91505092915050565b6000602082840312156124ff57600080fd5b600061250d84828501612210565b91505092915050565b60006020828403121561252857600080fd5b60006125368482850161224f565b91505092915050565b61254881612da6565b82525050565b61255781612db8565b82525050565b61256681612dc4565b82525050565b600061257782612c4e565b6125818185612c64565b9350612591818560208601612e33565b61259a81613029565b840191505092915050565b60006125b082612c59565b6125ba8185612c75565b93506125ca818560208601612e33565b6125d381613029565b840191505092915050565b60006125e982612c59565b6125f38185612c86565b9350612603818560208601612e33565b80840191505092915050565b600061261c602083612c75565b91506126278261303a565b602082019050919050565b600061263f603283612c75565b915061264a82613063565b604082019050919050565b6000612662602583612c75565b915061266d826130b2565b604082019050919050565b6000612685601c83612c75565b915061269082613101565b602082019050919050565b60006126a8602483612c75565b91506126b38261312a565b604082019050919050565b60006126cb601983612c75565b91506126d682613179565b602082019050919050565b60006126ee602c83612c75565b91506126f9826131a2565b604082019050919050565b6000612711603883612c75565b915061271c826131f1565b604082019050919050565b6000612734602a83612c75565b915061273f82613240565b604082019050919050565b6000612757602983612c75565b91506127628261328f565b604082019050919050565b600061277a602083612c75565b9150612785826132de565b602082019050919050565b600061279d602c83612c75565b91506127a882613307565b604082019050919050565b60006127c0602f83612c75565b91506127cb82613356565b604082019050919050565b60006127e3602183612c75565b91506127ee826133a5565b604082019050919050565b6000612806603183612c75565b9150612811826133f4565b604082019050919050565b6000612829601783612c86565b915061283482613443565b601782019050919050565b600061284c601183612c86565b91506128578261346c565b601182019050919050565b600061286f602f83612c75565b915061287a82613495565b604082019050919050565b61288e81612e1a565b82525050565b60006128a082856125de565b91506128ac82846125de565b91508190509392505050565b60006128c38261281c565b91506128cf82856125de565b91506128da8261283f565b91506128e682846125de565b91508190509392505050565b6000602082019050612907600083018461253f565b92915050565b6000608082019050612922600083018761253f565b61292f602083018661253f565b61293c6040830185612885565b818103606083015261294e818461256c565b905095945050505050565b600060208201905061296e600083018461254e565b92915050565b6000602082019050612989600083018461255d565b92915050565b600060208201905081810360008301526129a981846125a5565b905092915050565b600060208201905081810360008301526129ca8161260f565b9050919050565b600060208201905081810360008301526129ea81612632565b9050919050565b60006020820190508181036000830152612a0a81612655565b9050919050565b60006020820190508181036000830152612a2a81612678565b9050919050565b60006020820190508181036000830152612a4a8161269b565b9050919050565b60006020820190508181036000830152612a6a816126be565b9050919050565b60006020820190508181036000830152612a8a816126e1565b9050919050565b60006020820190508181036000830152612aaa81612704565b9050919050565b60006020820190508181036000830152612aca81612727565b9050919050565b60006020820190508181036000830152612aea8161274a565b9050919050565b60006020820190508181036000830152612b0a8161276d565b9050919050565b60006020820190508181036000830152612b2a81612790565b9050919050565b60006020820190508181036000830152612b4a816127b3565b9050919050565b60006020820190508181036000830152612b6a816127d6565b9050919050565b60006020820190508181036000830152612b8a816127f9565b9050919050565b60006020820190508181036000830152612baa81612862565b9050919050565b6000602082019050612bc66000830184612885565b92915050565b6000612bd6612be7565b9050612be28282612ec2565b919050565b6000604051905090565b600067ffffffffffffffff821115612c0c57612c0b612ffa565b5b602082029050602081019050919050565b600067ffffffffffffffff821115612c3857612c37612ffa565b5b612c4182613029565b9050602081019050919050565b600081519050919050565b600081519050919050565b600082825260208201905092915050565b600082825260208201905092915050565b600081905092915050565b6000612c9c82612e1a565b9150612ca783612e1a565b9250827fffffffffffffffffffffffffffffffffffffffffffffffffffffffffffffffff03821115612cdc57612cdb612f6d565b5b828201905092915050565b6000612cf282612e1a565b9150612cfd83612e1a565b925082612d0d57612d0c612f9c565b5b828204905092915050565b6000612d2382612e1a565b9150612d2e83612e1a565b9250817fffffffffffffffffffffffffffffffffffffffffffffffffffffffffffffffff0483118215151615612d6757612d66612f6d565b5b828202905092915050565b6000612d7d82612e1a565b9150612d8883612e1a565b925082821015612d9b57612d9a612f6d565b5b828203905092915050565b6000612db182612dfa565b9050919050565b60008115159050919050565b6000819050919050565b60007fffffffff0000000000000000000000000000000000000000000000000000000082169050919050565b600073ffffffffffffffffffffffffffffffffffffffff82169050919050565b6000819050919050565b82818337600083830152505050565b60005b83811015612e51578082015181840152602081019050612e36565b83811115612e60576000848401525b50505050565b6000612e7182612e1a565b91506000821415612e8557612e84612f6d565b5b600182039050919050565b60006002820490506001821680612ea857607f821691505b60208210811415612ebc57612ebb612fcb565b5b50919050565b612ecb82613029565b810181811067ffffffffffffffff82111715612eea57612ee9612ffa565b5b80604052505050565b6000612efe82612e1a565b91507fffffffffffffffffffffffffffffffffffffffffffffffffffffffffffffffff821415612f3157612f30612f6d565b5b600182019050919050565b6000612f4782612e1a565b9150612f5283612e1a565b925082612f6257612f61612f9c565b5b828206905092915050565b7f4e487b7100000000000000000000000000000000000000000000000000000000600052601160045260246000fd5b7f4e487b7100000000000000000000000000000000000000000000000000000000600052601260045260246000fd5b7f4e487b7100000000000000000000000000000000000000000000000000000000600052602260045260246000fd5b7f4e487b7100000000000000000000000000000000000000000000000000000000600052604160045260246000fd5b6000601f19601f8301169050919050565b7f537472696e67733a20686578206c656e67746820696e73756666696369656e74600082015250565b7f4552433732313a207472616e7366657220746f206e6f6e20455243373231526560008201527f63656976657220696d706c656d656e7465720000000000000000000000000000602082015250565b7f4552433732313a207472616e736665722066726f6d20696e636f72726563742060008201527f6f776e6572000000000000000000000000000000000000000000000000000000602082015250565b7f4552433732313a20746f6b656e20616c7265616479206d696e74656400000000600082015250565b7f4552433732313a207472616e7366657220746f20746865207a65726f2061646460008201527f7265737300000000000000000000000000000000000000000000000000000000602082015250565b7f4552433732313a20617070726f766520746f2063616c6c657200000000000000600082015250565b7f4552433732313a206f70657261746f7220717565727920666f72206e6f6e657860008201527f697374656e7420746f6b656e0000000000000000000000000000000000000000602082015250565b7f4552433732313a20617070726f76652063616c6c6572206973206e6f74206f7760008201527f6e6572206e6f7220617070726f76656420666f7220616c6c0000000000000000602082015250565b7f4552433732313a2062616c616e636520717565727920666f7220746865207a6560008201527f726f206164647265737300000000000000000000000000000000000000000000602082015250565b7f4552433732313a206f776e657220717565727920666f72206e6f6e657869737460008201527f656e7420746f6b656e0000000000000000000000000000000000000000000000602082015250565b7f4552433732313a206d696e7420746f20746865207a65726f2061646472657373600082015250565b7f4552433732313a20617070726f76656420717565727920666f72206e6f6e657860008201527f697374656e7420746f6b656e0000000000000000000000000000000000000000602082015250565b7f4552433732314d657461646174613a2055524920717565727920666f72206e6f60008201527f6e6578697374656e7420746f6b656e0000000000000000000000000000000000602082015250565b7f4552433732313a20617070726f76616c20746f2063757272656e74206f776e6560008201527f7200000000000000000000000000000000000000000000000000000000000000602082015250565b7f4552433732313a207472616e736665722063616c6c6572206973206e6f74206f60008201527f776e6572206e6f7220617070726f766564000000000000000000000000000000602082015250565b7f416363657373436f6e74726f6c3a206163636f756e7420000000000000000000600082015250565b7f206973206d697373696e6720726f6c6520000000000000000000000000000000600082015250565b7f416363657373436f6e74726f6c3a2063616e206f6e6c792072656e6f756e636560008201527f20726f6c657320666f722073656c660000000000000000000000000000000000602082015250565b6134ed81612da6565b81146134f857600080fd5b50565b61350481612db8565b811461350f57600080fd5b50565b61351b81612dc4565b811461352657600080fd5b50565b61353281612dce565b811461353d57600080fd5b50565b61354981612e1a565b811461355457600080fd5b5056fea2646970667358221220da9dd21af03b31b57250de48c4ccef10da94d6f3f3ba43a91f437454a07e479c64736f6c63430008010033",
  "immutableReferences": {},
  "source": "/**\r\n * SPDX-License-Identifier: UNLICENSED\r\n */\r\npragma solidity ^0.8.0;\r\n\r\nimport \"@openzeppelin/contracts/token/ERC721/ERC721.sol\";\r\nimport \"@openzeppelin/contracts/access/AccessControl.sol\";\r\n\r\n\r\ncontract MyNFT is ERC721, AccessControl {\r\n    bytes32 public constant MINTER_ROLE = keccak256(\"MINTER_ROLE\");\r\n\r\n    constructor() ERC721(\"MyNFT\", \"MyNFT\") {\r\n        _setupRole(MINTER_ROLE, msg.sender);\r\n    }\r\n\r\n    function mint(address account, uint256 tokenId) public payable onlyRole(MINTER_ROLE)  {\r\n        //require(msg.value == 0.1 ether, \"Not enough funds to mint.\");\r\n        _mint(account, tokenId);\r\n    }\r\n    function batchMint(address to, uint256[] memory tokenIds) public payable onlyRole(MINTER_ROLE) {\r\n        //require(msg.value == 0.1 ether * tokenIds.length, \"Not enough funds to mint.\");\r\n\r\n        for (uint256 i = 0; i < tokenIds.length; i++) {\r\n            _mint(to, tokenIds[i]);\r\n        }\r\n    }\r\n\r\n    function supportsInterface(bytes4 interfaceId)\r\n        public\r\n        view\r\n        virtual\r\n        override(AccessControl, ERC721)\r\n        returns (bool)\r\n    {\r\n        return super.supportsInterface(interfaceId);\r\n    }\r\n\r\n    \r\n}",
  "sourcePath": "C:\\Users\\Samuel Cheng\\Desktop\\Solidity-EVM-Dev-Batch-1-HW\\graduation_project\\bsc-eth-bridge\\contracts\\MyNFT.sol",
  "compiler": {
    "name": "solc",
    "version": "0.8.1+commit.df193b15.Emscripten.clang"
  },
  "schemaVersion": "3.4.5",
  "updatedAt": "2022-02-27T09:14:39.298Z",
  "networkType": "ethereum",
  "devdoc": {
    "kind": "dev",
    "methods": {
      "approve(address,uint256)": {
        "details": "See {IERC721-approve}."
      },
      "balanceOf(address)": {
        "details": "See {IERC721-balanceOf}."
      },
      "getApproved(uint256)": {
        "details": "See {IERC721-getApproved}."
      },
      "getRoleAdmin(bytes32)": {
        "details": "Returns the admin role that controls `role`. See {grantRole} and {revokeRole}. To change a role's admin, use {_setRoleAdmin}."
      },
      "grantRole(bytes32,address)": {
        "details": "Grants `role` to `account`. If `account` had not been already granted `role`, emits a {RoleGranted} event. Requirements: - the caller must have ``role``'s admin role."
      },
      "hasRole(bytes32,address)": {
        "details": "Returns `true` if `account` has been granted `role`."
      },
      "isApprovedForAll(address,address)": {
        "details": "See {IERC721-isApprovedForAll}."
      },
      "name()": {
        "details": "See {IERC721Metadata-name}."
      },
      "ownerOf(uint256)": {
        "details": "See {IERC721-ownerOf}."
      },
      "renounceRole(bytes32,address)": {
        "details": "Revokes `role` from the calling account. Roles are often managed via {grantRole} and {revokeRole}: this function's purpose is to provide a mechanism for accounts to lose their privileges if they are compromised (such as when a trusted device is misplaced). If the calling account had been revoked `role`, emits a {RoleRevoked} event. Requirements: - the caller must be `account`."
      },
      "revokeRole(bytes32,address)": {
        "details": "Revokes `role` from `account`. If `account` had been granted `role`, emits a {RoleRevoked} event. Requirements: - the caller must have ``role``'s admin role."
      },
      "safeTransferFrom(address,address,uint256)": {
        "details": "See {IERC721-safeTransferFrom}."
      },
      "safeTransferFrom(address,address,uint256,bytes)": {
        "details": "See {IERC721-safeTransferFrom}."
      },
      "setApprovalForAll(address,bool)": {
        "details": "See {IERC721-setApprovalForAll}."
      },
      "symbol()": {
        "details": "See {IERC721Metadata-symbol}."
      },
      "tokenURI(uint256)": {
        "details": "See {IERC721Metadata-tokenURI}."
      },
      "transferFrom(address,address,uint256)": {
        "details": "See {IERC721-transferFrom}."
      }
    },
    "version": 1
  },
  "userdoc": {
    "kind": "user",
    "methods": {},
    "version": 1
  }
}