{
  "contractName": "MyToken",
  "abi": [
    {
      "inputs": [],
      "stateMutability": "nonpayable",
      "type": "constructor"
    },
    {
      "anonymous": false,
      "inputs": [
        {
          "indexed": true,
          "internalType": "address",
          "name": "owner",
          "type": "address"
        },
        {
          "indexed": true,
          "internalType": "address",
          "name": "approved",
          "type": "address"
        },
        {
          "indexed": true,
          "internalType": "uint256",
          "name": "tokenId",
          "type": "uint256"
        }
      ],
      "name": "Approval",
      "type": "event"
    },
    {
      "anonymous": false,
      "inputs": [
        {
          "indexed": true,
          "internalType": "address",
          "name": "owner",
          "type": "address"
        },
        {
          "indexed": true,
          "internalType": "address",
          "name": "operator",
          "type": "address"
        },
        {
          "indexed": false,
          "internalType": "bool",
          "name": "approved",
          "type": "bool"
        }
      ],
      "name": "ApprovalForAll",
      "type": "event"
    },
    {
      "anonymous": false,
      "inputs": [
        {
          "indexed": true,
          "internalType": "bytes32",
          "name": "role",
          "type": "bytes32"
        },
        {
          "indexed": true,
          "internalType": "bytes32",
          "name": "previousAdminRole",
          "type": "bytes32"
        },
        {
          "indexed": true,
          "internalType": "bytes32",
          "name": "newAdminRole",
          "type": "bytes32"
        }
      ],
      "name": "RoleAdminChanged",
      "type": "event"
    },
    {
      "anonymous": false,
      "inputs": [
        {
          "indexed": true,
          "internalType": "bytes32",
          "name": "role",
          "type": "bytes32"
        },
        {
          "indexed": true,
          "internalType": "address",
          "name": "account",
          "type": "address"
        },
        {
          "indexed": true,
          "internalType": "address",
          "name": "sender",
          "type": "address"
        }
      ],
      "name": "RoleGranted",
      "type": "event"
    },
    {
      "anonymous": false,
      "inputs": [
        {
          "indexed": true,
          "internalType": "bytes32",
          "name": "role",
          "type": "bytes32"
        },
        {
          "indexed": true,
          "internalType": "address",
          "name": "account",
          "type": "address"
        },
        {
          "indexed": true,
          "internalType": "address",
          "name": "sender",
          "type": "address"
        }
      ],
      "name": "RoleRevoked",
      "type": "event"
    },
    {
      "anonymous": false,
      "inputs": [
        {
          "indexed": true,
          "internalType": "address",
          "name": "from",
          "type": "address"
        },
        {
          "indexed": true,
          "internalType": "address",
          "name": "to",
          "type": "address"
        },
        {
          "indexed": true,
          "internalType": "uint256",
          "name": "tokenId",
          "type": "uint256"
        }
      ],
      "name": "Transfer",
      "type": "event"
    },
    {
      "inputs": [],
      "name": "DEFAULT_ADMIN_ROLE",
      "outputs": [
        {
          "internalType": "bytes32",
          "name": "",
          "type": "bytes32"
        }
      ],
      "stateMutability": "view",
      "type": "function"
    },
    {
      "inputs": [],
      "name": "MINTER_ROLE",
      "outputs": [
        {
          "internalType": "bytes32",
          "name": "",
          "type": "bytes32"
        }
      ],
      "stateMutability": "view",
      "type": "function"
    },
    {
      "inputs": [
        {
          "internalType": "address",
          "name": "to",
          "type": "address"
        },
        {
          "internalType": "uint256",
          "name": "tokenId",
          "type": "uint256"
        }
      ],
      "name": "approve",
      "outputs": [],
      "stateMutability": "nonpayable",
      "type": "function"
    },
    {
      "inputs": [
        {
          "internalType": "address",
          "name": "owner",
          "type": "address"
        }
      ],
      "name": "balanceOf",
      "outputs": [
        {
          "internalType": "uint256",
          "name": "",
          "type": "uint256"
        }
      ],
      "stateMutability": "view",
      "type": "function"
    },
    {
      "inputs": [
        {
          "internalType": "uint256",
          "name": "tokenId",
          "type": "uint256"
        }
      ],
      "name": "getApproved",
      "outputs": [
        {
          "internalType": "address",
          "name": "",
          "type": "address"
        }
      ],
      "stateMutability": "view",
      "type": "function"
    },
    {
      "inputs": [
        {
          "internalType": "bytes32",
          "name": "role",
          "type": "bytes32"
        }
      ],
      "name": "getRoleAdmin",
      "outputs": [
        {
          "internalType": "bytes32",
          "name": "",
          "type": "bytes32"
        }
      ],
      "stateMutability": "view",
      "type": "function"
    },
    {
      "inputs": [
        {
          "internalType": "bytes32",
          "name": "role",
          "type": "bytes32"
        },
        {
          "internalType": "address",
          "name": "account",
          "type": "address"
        }
      ],
      "name": "grantRole",
      "outputs": [],
      "stateMutability": "nonpayable",
      "type": "function"
    },
    {
      "inputs": [
        {
          "internalType": "bytes32",
          "name": "role",
          "type": "bytes32"
        },
        {
          "internalType": "address",
          "name": "account",
          "type": "address"
        }
      ],
      "name": "hasRole",
      "outputs": [
        {
          "internalType": "bool",
          "name": "",
          "type": "bool"
        }
      ],
      "stateMutability": "view",
      "type": "function"
    },
    {
      "inputs": [
        {
          "internalType": "address",
          "name": "owner",
          "type": "address"
        },
        {
          "internalType": "address",
          "name": "operator",
          "type": "address"
        }
      ],
      "name": "isApprovedForAll",
      "outputs": [
        {
          "internalType": "bool",
          "name": "",
          "type": "bool"
        }
      ],
      "stateMutability": "view",
      "type": "function"
    },
    {
      "inputs": [],
      "name": "name",
      "outputs": [
        {
          "internalType": "string",
          "name": "",
          "type": "string"
        }
      ],
      "stateMutability": "view",
      "type": "function"
    },
    {
      "inputs": [
        {
          "internalType": "uint256",
          "name": "tokenId",
          "type": "uint256"
        }
      ],
      "name": "ownerOf",
      "outputs": [
        {
          "internalType": "address",
          "name": "",
          "type": "address"
        }
      ],
      "stateMutability": "view",
      "type": "function"
    },
    {
      "inputs": [
        {
          "internalType": "bytes32",
          "name": "role",
          "type": "bytes32"
        },
        {
          "internalType": "address",
          "name": "account",
          "type": "address"
        }
      ],
      "name": "renounceRole",
      "outputs": [],
      "stateMutability": "nonpayable",
      "type": "function"
    },
    {
      "inputs": [
        {
          "internalType": "bytes32",
          "name": "role",
          "type": "bytes32"
        },
        {
          "internalType": "address",
          "name": "account",
          "type": "address"
        }
      ],
      "name": "revokeRole",
      "outputs": [],
      "stateMutability": "nonpayable",
      "type": "function"
    },
    {
      "inputs": [
        {
          "internalType": "address",
          "name": "from",
          "type": "address"
        },
        {
          "internalType": "address",
          "name": "to",
          "type": "address"
        },
        {
          "internalType": "uint256",
          "name": "tokenId",
          "type": "uint256"
        }
      ],
      "name": "safeTransferFrom",
      "outputs": [],
      "stateMutability": "nonpayable",
      "type": "function"
    },
    {
      "inputs": [
        {
          "internalType": "address",
          "name": "from",
          "type": "address"
        },
        {
          "internalType": "address",
          "name": "to",
          "type": "address"
        },
        {
          "internalType": "uint256",
          "name": "tokenId",
          "type": "uint256"
        },
        {
          "internalType": "bytes",
          "name": "_data",
          "type": "bytes"
        }
      ],
      "name": "safeTransferFrom",
      "outputs": [],
      "stateMutability": "nonpayable",
      "type": "function"
    },
    {
      "inputs": [
        {
          "internalType": "address",
          "name": "operator",
          "type": "address"
        },
        {
          "internalType": "bool",
          "name": "approved",
          "type": "bool"
        }
      ],
      "name": "setApprovalForAll",
      "outputs": [],
      "stateMutability": "nonpayable",
      "type": "function"
    },
    {
      "inputs": [],
      "name": "symbol",
      "outputs": [
        {
          "internalType": "string",
          "name": "",
          "type": "string"
        }
      ],
      "stateMutability": "view",
      "type": "function"
    },
    {
      "inputs": [
        {
          "internalType": "uint256",
          "name": "tokenId",
          "type": "uint256"
        }
      ],
      "name": "tokenURI",
      "outputs": [
        {
          "internalType": "string",
          "name": "",
          "type": "string"
        }
      ],
      "stateMutability": "view",
      "type": "function"
    },
    {
      "inputs": [
        {
          "internalType": "address",
          "name": "from",
          "type": "address"
        },
        {
          "internalType": "address",
          "name": "to",
          "type": "address"
        },
        {
          "internalType": "uint256",
          "name": "tokenId",
          "type": "uint256"
        }
      ],
      "name": "transferFrom",
      "outputs": [],
      "stateMutability": "nonpayable",
      "type": "function"
    },
    {
      "inputs": [
        {
          "internalType": "address",
          "name": "account",
          "type": "address"
        },
        {
          "internalType": "uint256",
          "name": "tokenId",
          "type": "uint256"
        }
      ],
      "name": "mint",
      "outputs": [],
      "stateMutability": "payable",
      "type": "function"
    },
    {
      "inputs": [
        {
          "internalType": "address",
          "name": "to",
          "type": "address"
        },
        {
          "internalType": "uint256[]",
          "name": "tokenIds",
          "type": "uint256[]"
        }
      ],
      "name": "batchMint",
      "outputs": [],
      "stateMutability": "payable",
      "type": "function"
    },
    {
      "inputs": [
        {
          "internalType": "bytes4",
          "name": "interfaceId",
          "type": "bytes4"
        }
      ],
      "name": "supportsInterface",
      "outputs": [
        {
          "internalType": "bool",
          "name": "",
          "type": "bool"
        }
      ],
      "stateMutability": "view",
      "type": "function"
    }
  ],
  "bytecode": "0x60806040523480156200001157600080fd5b506040518060400160405280600781526020017f4d79546f6b656e000000000000000000000000000000000000000000000000008152506040518060400160405280600781526020017f4d79546f6b656e0000000000000000000000000000000000000000000000000081525081600090805190602001906200009692919062000265565b508060019080519060200190620000af92919062000265565b505050620000e47f9f2df0fed2c77648de5860a4cc508cd0818c85b8b8a1ab4ceeef8d981c8956a633620000ea60201b60201c565b6200037a565b620000fc82826200010060201b60201c565b5050565b620001128282620001f260201b60201c565b620001ee5760016006600084815260200190815260200160002060000160008373ffffffffffffffffffffffffffffffffffffffff1673ffffffffffffffffffffffffffffffffffffffff16815260200190815260200160002060006101000a81548160ff021916908315150217905550620001936200025d60201b60201c565b73ffffffffffffffffffffffffffffffffffffffff168173ffffffffffffffffffffffffffffffffffffffff16837f2f8788117e7eff1d82e926ec794901d17c78024a50270940304540a733656f0d60405160405180910390a45b5050565b60006006600084815260200190815260200160002060000160008373ffffffffffffffffffffffffffffffffffffffff1673ffffffffffffffffffffffffffffffffffffffff16815260200190815260200160002060009054906101000a900460ff16905092915050565b600033905090565b828054620002739062000315565b90600052602060002090601f016020900481019282620002975760008555620002e3565b82601f10620002b257805160ff1916838001178555620002e3565b82800160010185558215620002e3579182015b82811115620002e2578251825591602001919060010190620002c5565b5b509050620002f29190620002f6565b5090565b5b8082111562000311576000816000905550600101620002f7565b5090565b600060028204905060018216806200032e57607f821691505b602082108114156200034557620003446200034b565b5b50919050565b7f4e487b7100000000000000000000000000000000000000000000000000000000600052602260045260246000fd5b61364f806200038a6000396000f3fe6080604052600436106101355760003560e01c80636352211e116100ab578063a22cb4651161006f578063a22cb4651461042e578063b88d4fde14610457578063c87b56dd14610480578063d5391393146104bd578063d547741f146104e8578063e985e9c51461051157610135565b80636352211e1461032157806370a082311461035e57806391d148541461039b57806395d89b41146103d8578063a217fddf1461040357610135565b8063248a9ca3116100fd578063248a9ca3146102315780632f2ff15d1461026e57806336568abe1461029757806340c10f19146102c057806342842e0e146102dc5780634684d7e91461030557610135565b806301ffc9a71461013a57806306fdde0314610177578063081812fc146101a2578063095ea7b3146101df57806323b872dd14610208575b600080fd5b34801561014657600080fd5b50610161600480360381019061015c919061251a565b61054e565b60405161016e91906129d2565b60405180910390f35b34801561018357600080fd5b5061018c610560565b6040516101999190612a08565b60405180910390f35b3480156101ae57600080fd5b506101c960048036038101906101c4919061256c565b6105f2565b6040516101d6919061296b565b60405180910390f35b3480156101eb57600080fd5b5061020660048036038101906102019190612479565b610677565b005b34801561021457600080fd5b5061022f600480360381019061022a919061231f565b61078f565b005b34801561023d57600080fd5b50610258600480360381019061025391906124b5565b6107ef565b60405161026591906129ed565b60405180910390f35b34801561027a57600080fd5b50610295600480360381019061029091906124de565b61080f565b005b3480156102a357600080fd5b506102be60048036038101906102b991906124de565b610838565b005b6102da60048036038101906102d59190612479565b6108bb565b005b3480156102e857600080fd5b5061030360048036038101906102fe919061231f565b6108fc565b005b61031f600480360381019061031a91906123e9565b61091c565b005b34801561032d57600080fd5b506103486004803603810190610343919061256c565b610a13565b604051610355919061296b565b60405180910390f35b34801561036a57600080fd5b50610385600480360381019061038091906122ba565b610ac5565b6040516103929190612c4a565b60405180910390f35b3480156103a757600080fd5b506103c260048036038101906103bd91906124de565b610b7d565b6040516103cf91906129d2565b60405180910390f35b3480156103e457600080fd5b506103ed610be8565b6040516103fa9190612a08565b60405180910390f35b34801561040f57600080fd5b50610418610c7a565b60405161042591906129ed565b60405180910390f35b34801561043a57600080fd5b506104556004803603810190610450919061243d565b610c81565b005b34801561046357600080fd5b5061047e6004803603810190610479919061236e565b610c97565b005b34801561048c57600080fd5b506104a760048036038101906104a2919061256c565b610cf9565b6040516104b49190612a08565b60405180910390f35b3480156104c957600080fd5b506104d2610da0565b6040516104df91906129ed565b60405180910390f35b3480156104f457600080fd5b5061050f600480360381019061050a91906124de565b610dc4565b005b34801561051d57600080fd5b50610538600480360381019061053391906122e3565b610ded565b60405161054591906129d2565b60405180910390f35b600061055982610e81565b9050919050565b60606000805461056f90612f29565b80601f016020809104026020016040519081016040528092919081815260200182805461059b90612f29565b80156105e85780601f106105bd576101008083540402835291602001916105e8565b820191906000526020600020905b8154815290600101906020018083116105cb57829003601f168201915b5050505050905090565b60006105fd82610efb565b61063c576040517f08c379a000000000000000000000000000000000000000000000000000000000815260040161063390612b8a565b60405180910390fd5b6004600083815260200190815260200160002060009054906101000a900473ffffffffffffffffffffffffffffffffffffffff169050919050565b600061068282610a13565b90508073ffffffffffffffffffffffffffffffffffffffff168373ffffffffffffffffffffffffffffffffffffffff1614156106f3576040517f08c379a00000000000000000000000000000000000000000000000000000000081526004016106ea90612bca565b60405180910390fd5b8073ffffffffffffffffffffffffffffffffffffffff16610712610f67565b73ffffffffffffffffffffffffffffffffffffffff16148061074157506107408161073b610f67565b610ded565b5b610780576040517f08c379a000000000000000000000000000000000000000000000000000000000815260040161077790612b0a565b60405180910390fd5b61078a8383610f6f565b505050565b6107a061079a610f67565b82611028565b6107df576040517f08c379a00000000000000000000000000000000000000000000000000000000081526004016107d690612c0a565b60405180910390fd5b6107ea838383611106565b505050565b600060066000838152602001908152602001600020600101549050919050565b610818826107ef565b61082981610824610f67565b61136d565b610833838361140a565b505050565b610840610f67565b73ffffffffffffffffffffffffffffffffffffffff168173ffffffffffffffffffffffffffffffffffffffff16146108ad576040517f08c379a00000000000000000000000000000000000000000000000000000000081526004016108a490612c2a565b60405180910390fd5b6108b782826114eb565b5050565b7f9f2df0fed2c77648de5860a4cc508cd0818c85b8b8a1ab4ceeef8d981c8956a66108ed816108e8610f67565b61136d565b6108f783836115cd565b505050565b61091783838360405180602001604052806000815250610c97565b505050565b7f9f2df0fed2c77648de5860a4cc508cd0818c85b8b8a1ab4ceeef8d981c8956a661094e81610949610f67565b61136d565b815167016345785d8a00006109639190612db1565b34146109a4576040517f08c379a000000000000000000000000000000000000000000000000000000000815260040161099b90612bea565b60405180910390fd5b60005b8251811015610a0d576109fa848483815181106109ed577f4e487b7100000000000000000000000000000000000000000000000000000000600052603260045260246000fd5b60200260200101516115cd565b8080610a0590612f8c565b9150506109a7565b50505050565b6000806002600084815260200190815260200160002060009054906101000a900473ffffffffffffffffffffffffffffffffffffffff169050600073ffffffffffffffffffffffffffffffffffffffff168173ffffffffffffffffffffffffffffffffffffffff161415610abc576040517f08c379a0000000000000000000000000000000000000000000000000000000008152600401610ab390612b4a565b60405180910390fd5b80915050919050565b60008073ffffffffffffffffffffffffffffffffffffffff168273ffffffffffffffffffffffffffffffffffffffff161415610b36576040517f08c379a0000000000000000000000000000000000000000000000000000000008152600401610b2d90612b2a565b60405180910390fd5b600360008373ffffffffffffffffffffffffffffffffffffffff1673ffffffffffffffffffffffffffffffffffffffff168152602001908152602001600020549050919050565b60006006600084815260200190815260200160002060000160008373ffffffffffffffffffffffffffffffffffffffff1673ffffffffffffffffffffffffffffffffffffffff16815260200190815260200160002060009054906101000a900460ff16905092915050565b606060018054610bf790612f29565b80601f0160208091040260200160405190810160405280929190818152602001828054610c2390612f29565b8015610c705780601f10610c4557610100808354040283529160200191610c70565b820191906000526020600020905b815481529060010190602001808311610c5357829003601f168201915b5050505050905090565b6000801b81565b610c93610c8c610f67565b83836117a7565b5050565b610ca8610ca2610f67565b83611028565b610ce7576040517f08c379a0000000000000000000000000000000000000000000000000000000008152600401610cde90612c0a565b60405180910390fd5b610cf384848484611914565b50505050565b6060610d0482610efb565b610d43576040517f08c379a0000000000000000000000000000000000000000000000000000000008152600401610d3a90612baa565b60405180910390fd5b6000610d4d611970565b90506000815111610d6d5760405180602001604052806000815250610d98565b80610d7784611987565b604051602001610d8892919061290d565b6040516020818303038152906040525b915050919050565b7f9f2df0fed2c77648de5860a4cc508cd0818c85b8b8a1ab4ceeef8d981c8956a681565b610dcd826107ef565b610dde81610dd9610f67565b61136d565b610de883836114eb565b505050565b6000600560008473ffffffffffffffffffffffffffffffffffffffff1673ffffffffffffffffffffffffffffffffffffffff16815260200190815260200160002060008373ffffffffffffffffffffffffffffffffffffffff1673ffffffffffffffffffffffffffffffffffffffff16815260200190815260200160002060009054906101000a900460ff16905092915050565b60007f7965db0b000000000000000000000000000000000000000000000000000000007bffffffffffffffffffffffffffffffffffffffffffffffffffffffff1916827bffffffffffffffffffffffffffffffffffffffffffffffffffffffff19161480610ef45750610ef382611b34565b5b9050919050565b60008073ffffffffffffffffffffffffffffffffffffffff166002600084815260200190815260200160002060009054906101000a900473ffffffffffffffffffffffffffffffffffffffff1673ffffffffffffffffffffffffffffffffffffffff1614159050919050565b600033905090565b816004600083815260200190815260200160002060006101000a81548173ffffffffffffffffffffffffffffffffffffffff021916908373ffffffffffffffffffffffffffffffffffffffff160217905550808273ffffffffffffffffffffffffffffffffffffffff16610fe283610a13565b73ffffffffffffffffffffffffffffffffffffffff167f8c5be1e5ebec7d5bd14f71427d1e84f3dd0314c0f7b2291e5b200ac8c7c3b92560405160405180910390a45050565b600061103382610efb565b611072576040517f08c379a000000000000000000000000000000000000000000000000000000000815260040161106990612aea565b60405180910390fd5b600061107d83610a13565b90508073ffffffffffffffffffffffffffffffffffffffff168473ffffffffffffffffffffffffffffffffffffffff1614806110ec57508373ffffffffffffffffffffffffffffffffffffffff166110d4846105f2565b73ffffffffffffffffffffffffffffffffffffffff16145b806110fd57506110fc8185610ded565b5b91505092915050565b8273ffffffffffffffffffffffffffffffffffffffff1661112682610a13565b73ffffffffffffffffffffffffffffffffffffffff161461117c576040517f08c379a000000000000000000000000000000000000000000000000000000000815260040161117390612a6a565b60405180910390fd5b600073ffffffffffffffffffffffffffffffffffffffff168273ffffffffffffffffffffffffffffffffffffffff1614156111ec576040517f08c379a00000000000000000000000000000000000000000000000000000000081526004016111e390612aaa565b60405180910390fd5b6111f7838383611c16565b611202600082610f6f565b6001600360008573ffffffffffffffffffffffffffffffffffffffff1673ffffffffffffffffffffffffffffffffffffffff16815260200190815260200160002060008282546112529190612e0b565b925050819055506001600360008473ffffffffffffffffffffffffffffffffffffffff1673ffffffffffffffffffffffffffffffffffffffff16815260200190815260200160002060008282546112a99190612d2a565b92505081905550816002600083815260200190815260200160002060006101000a81548173ffffffffffffffffffffffffffffffffffffffff021916908373ffffffffffffffffffffffffffffffffffffffff160217905550808273ffffffffffffffffffffffffffffffffffffffff168473ffffffffffffffffffffffffffffffffffffffff167fddf252ad1be2c89b69c2b068fc378daa952ba7f163c4a11628f55a4df523b3ef60405160405180910390a4611368838383611c1b565b505050565b6113778282610b7d565b6114065761139c8173ffffffffffffffffffffffffffffffffffffffff166014611c20565b6113aa8360001c6020611c20565b6040516020016113bb929190612931565b6040516020818303038152906040526040517f08c379a00000000000000000000000000000000000000000000000000000000081526004016113fd9190612a08565b60405180910390fd5b5050565b6114148282610b7d565b6114e75760016006600084815260200190815260200160002060000160008373ffffffffffffffffffffffffffffffffffffffff1673ffffffffffffffffffffffffffffffffffffffff16815260200190815260200160002060006101000a81548160ff02191690831515021790555061148c610f67565b73ffffffffffffffffffffffffffffffffffffffff168173ffffffffffffffffffffffffffffffffffffffff16837f2f8788117e7eff1d82e926ec794901d17c78024a50270940304540a733656f0d60405160405180910390a45b5050565b6114f58282610b7d565b156115c95760006006600084815260200190815260200160002060000160008373ffffffffffffffffffffffffffffffffffffffff1673ffffffffffffffffffffffffffffffffffffffff16815260200190815260200160002060006101000a81548160ff02191690831515021790555061156e610f67565b73ffffffffffffffffffffffffffffffffffffffff168173ffffffffffffffffffffffffffffffffffffffff16837ff6391f5c32d9c69d2a47ea670b442974b53935d1edc7fd64eb21e047a839171b60405160405180910390a45b5050565b600073ffffffffffffffffffffffffffffffffffffffff168273ffffffffffffffffffffffffffffffffffffffff16141561163d576040517f08c379a000000000000000000000000000000000000000000000000000000000815260040161163490612b6a565b60405180910390fd5b61164681610efb565b15611686576040517f08c379a000000000000000000000000000000000000000000000000000000000815260040161167d90612a8a565b60405180910390fd5b61169260008383611c16565b6001600360008473ffffffffffffffffffffffffffffffffffffffff1673ffffffffffffffffffffffffffffffffffffffff16815260200190815260200160002060008282546116e29190612d2a565b92505081905550816002600083815260200190815260200160002060006101000a81548173ffffffffffffffffffffffffffffffffffffffff021916908373ffffffffffffffffffffffffffffffffffffffff160217905550808273ffffffffffffffffffffffffffffffffffffffff16600073ffffffffffffffffffffffffffffffffffffffff167fddf252ad1be2c89b69c2b068fc378daa952ba7f163c4a11628f55a4df523b3ef60405160405180910390a46117a360008383611c1b565b5050565b8173ffffffffffffffffffffffffffffffffffffffff168373ffffffffffffffffffffffffffffffffffffffff161415611816576040517f08c379a000000000000000000000000000000000000000000000000000000000815260040161180d90612aca565b60405180910390fd5b80600560008573ffffffffffffffffffffffffffffffffffffffff1673ffffffffffffffffffffffffffffffffffffffff16815260200190815260200160002060008473ffffffffffffffffffffffffffffffffffffffff1673ffffffffffffffffffffffffffffffffffffffff16815260200190815260200160002060006101000a81548160ff0219169083151502179055508173ffffffffffffffffffffffffffffffffffffffff168373ffffffffffffffffffffffffffffffffffffffff167f17307eab39ab6107e8899845ad3d59bd9653f200f220920489ca2b5937696c318360405161190791906129d2565b60405180910390a3505050565b61191f848484611106565b61192b84848484611f1a565b61196a576040517f08c379a000000000000000000000000000000000000000000000000000000000815260040161196190612a4a565b60405180910390fd5b50505050565b606060405180602001604052806000815250905090565b606060008214156119cf576040518060400160405280600181526020017f30000000000000000000000000000000000000000000000000000000000000008152509050611b2f565b600082905060005b60008214611a015780806119ea90612f8c565b915050600a826119fa9190612d80565b91506119d7565b60008167ffffffffffffffff811115611a43577f4e487b7100000000000000000000000000000000000000000000000000000000600052604160045260246000fd5b6040519080825280601f01601f191660200182016040528015611a755781602001600182028036833780820191505090505b5090505b60008514611b2857600182611a8e9190612e0b565b9150600a85611a9d9190612fd5565b6030611aa99190612d2a565b60f81b818381518110611ae5577f4e487b7100000000000000000000000000000000000000000000000000000000600052603260045260246000fd5b60200101907effffffffffffffffffffffffffffffffffffffffffffffffffffffffffffff1916908160001a905350600a85611b219190612d80565b9450611a79565b8093505050505b919050565b60007f80ac58cd000000000000000000000000000000000000000000000000000000007bffffffffffffffffffffffffffffffffffffffffffffffffffffffff1916827bffffffffffffffffffffffffffffffffffffffffffffffffffffffff19161480611bff57507f5b5e139f000000000000000000000000000000000000000000000000000000007bffffffffffffffffffffffffffffffffffffffffffffffffffffffff1916827bffffffffffffffffffffffffffffffffffffffffffffffffffffffff1916145b80611c0f5750611c0e826120b1565b5b9050919050565b505050565b505050565b606060006002836002611c339190612db1565b611c3d9190612d2a565b67ffffffffffffffff811115611c7c577f4e487b7100000000000000000000000000000000000000000000000000000000600052604160045260246000fd5b6040519080825280601f01601f191660200182016040528015611cae5781602001600182028036833780820191505090505b5090507f300000000000000000000000000000000000000000000000000000000000000081600081518110611d0c577f4e487b7100000000000000000000000000000000000000000000000000000000600052603260045260246000fd5b60200101907effffffffffffffffffffffffffffffffffffffffffffffffffffffffffffff1916908160001a9053507f780000000000000000000000000000000000000000000000000000000000000081600181518110611d96577f4e487b7100000000000000000000000000000000000000000000000000000000600052603260045260246000fd5b60200101907effffffffffffffffffffffffffffffffffffffffffffffffffffffffffffff1916908160001a90535060006001846002611dd69190612db1565b611de09190612d2a565b90505b6001811115611ecc577f3031323334353637383961626364656600000000000000000000000000000000600f861660108110611e48577f4e487b7100000000000000000000000000000000000000000000000000000000600052603260045260246000fd5b1a60f81b828281518110611e85577f4e487b7100000000000000000000000000000000000000000000000000000000600052603260045260246000fd5b60200101907effffffffffffffffffffffffffffffffffffffffffffffffffffffffffffff1916908160001a905350600485901c945080611ec590612eff565b9050611de3565b5060008414611f10576040517f08c379a0000000000000000000000000000000000000000000000000000000008152600401611f0790612a2a565b60405180910390fd5b8091505092915050565b6000611f3b8473ffffffffffffffffffffffffffffffffffffffff1661211b565b156120a4578373ffffffffffffffffffffffffffffffffffffffff1663150b7a02611f64610f67565b8786866040518563ffffffff1660e01b8152600401611f869493929190612986565b602060405180830381600087803b158015611fa057600080fd5b505af1925050508015611fd157506040513d601f19601f82011682018060405250810190611fce9190612543565b60015b612054573d8060008114612001576040519150601f19603f3d011682016040523d82523d6000602084013e612006565b606091505b5060008151141561204c576040517f08c379a000000000000000000000000000000000000000000000000000000000815260040161204390612a4a565b60405180910390fd5b805181602001fd5b63150b7a0260e01b7bffffffffffffffffffffffffffffffffffffffffffffffffffffffff1916817bffffffffffffffffffffffffffffffffffffffffffffffffffffffff1916149150506120a9565b600190505b949350505050565b60007f01ffc9a7000000000000000000000000000000000000000000000000000000007bffffffffffffffffffffffffffffffffffffffffffffffffffffffff1916827bffffffffffffffffffffffffffffffffffffffffffffffffffffffff1916149050919050565b6000808273ffffffffffffffffffffffffffffffffffffffff163b119050919050565b600061215161214c84612c8a565b612c65565b9050808382526020820190508285602086028201111561217057600080fd5b60005b858110156121a0578161218688826122a5565b845260208401935060208301925050600181019050612173565b5050509392505050565b60006121bd6121b884612cb6565b612c65565b9050828152602081018484840111156121d557600080fd5b6121e0848285612ebd565b509392505050565b6000813590506121f7816135a6565b92915050565b600082601f83011261220e57600080fd5b813561221e84826020860161213e565b91505092915050565b600081359050612236816135bd565b92915050565b60008135905061224b816135d4565b92915050565b600081359050612260816135eb565b92915050565b600081519050612275816135eb565b92915050565b600082601f83011261228c57600080fd5b813561229c8482602086016121aa565b91505092915050565b6000813590506122b481613602565b92915050565b6000602082840312156122cc57600080fd5b60006122da848285016121e8565b91505092915050565b600080604083850312156122f657600080fd5b6000612304858286016121e8565b9250506020612315858286016121e8565b9150509250929050565b60008060006060848603121561233457600080fd5b6000612342868287016121e8565b9350506020612353868287016121e8565b9250506040612364868287016122a5565b9150509250925092565b6000806000806080858703121561238457600080fd5b6000612392878288016121e8565b94505060206123a3878288016121e8565b93505060406123b4878288016122a5565b925050606085013567ffffffffffffffff8111156123d157600080fd5b6123dd8782880161227b565b91505092959194509250565b600080604083850312156123fc57600080fd5b600061240a858286016121e8565b925050602083013567ffffffffffffffff81111561242757600080fd5b612433858286016121fd565b9150509250929050565b6000806040838503121561245057600080fd5b600061245e858286016121e8565b925050602061246f85828601612227565b9150509250929050565b6000806040838503121561248c57600080fd5b600061249a858286016121e8565b92505060206124ab858286016122a5565b9150509250929050565b6000602082840312156124c757600080fd5b60006124d58482850161223c565b91505092915050565b600080604083850312156124f157600080fd5b60006124ff8582860161223c565b9250506020612510858286016121e8565b9150509250929050565b60006020828403121561252c57600080fd5b600061253a84828501612251565b91505092915050565b60006020828403121561255557600080fd5b600061256384828501612266565b91505092915050565b60006020828403121561257e57600080fd5b600061258c848285016122a5565b91505092915050565b61259e81612e3f565b82525050565b6125ad81612e51565b82525050565b6125bc81612e5d565b82525050565b60006125cd82612ce7565b6125d78185612cfd565b93506125e7818560208601612ecc565b6125f0816130c2565b840191505092915050565b600061260682612cf2565b6126108185612d0e565b9350612620818560208601612ecc565b612629816130c2565b840191505092915050565b600061263f82612cf2565b6126498185612d1f565b9350612659818560208601612ecc565b80840191505092915050565b6000612672602083612d0e565b915061267d826130d3565b602082019050919050565b6000612695603283612d0e565b91506126a0826130fc565b604082019050919050565b60006126b8602583612d0e565b91506126c38261314b565b604082019050919050565b60006126db601c83612d0e565b91506126e68261319a565b602082019050919050565b60006126fe602483612d0e565b9150612709826131c3565b604082019050919050565b6000612721601983612d0e565b915061272c82613212565b602082019050919050565b6000612744602c83612d0e565b915061274f8261323b565b604082019050919050565b6000612767603883612d0e565b91506127728261328a565b604082019050919050565b600061278a602a83612d0e565b9150612795826132d9565b604082019050919050565b60006127ad602983612d0e565b91506127b882613328565b604082019050919050565b60006127d0602083612d0e565b91506127db82613377565b602082019050919050565b60006127f3602c83612d0e565b91506127fe826133a0565b604082019050919050565b6000612816602f83612d0e565b9150612821826133ef565b604082019050919050565b6000612839602183612d0e565b91506128448261343e565b604082019050919050565b600061285c601983612d0e565b91506128678261348d565b602082019050919050565b600061287f603183612d0e565b915061288a826134b6565b604082019050919050565b60006128a2601783612d1f565b91506128ad82613505565b601782019050919050565b60006128c5601183612d1f565b91506128d08261352e565b601182019050919050565b60006128e8602f83612d0e565b91506128f382613557565b604082019050919050565b61290781612eb3565b82525050565b60006129198285612634565b91506129258284612634565b91508190509392505050565b600061293c82612895565b91506129488285612634565b9150612953826128b8565b915061295f8284612634565b91508190509392505050565b60006020820190506129806000830184612595565b92915050565b600060808201905061299b6000830187612595565b6129a86020830186612595565b6129b560408301856128fe565b81810360608301526129c781846125c2565b905095945050505050565b60006020820190506129e760008301846125a4565b92915050565b6000602082019050612a0260008301846125b3565b92915050565b60006020820190508181036000830152612a2281846125fb565b905092915050565b60006020820190508181036000830152612a4381612665565b9050919050565b60006020820190508181036000830152612a6381612688565b9050919050565b60006020820190508181036000830152612a83816126ab565b9050919050565b60006020820190508181036000830152612aa3816126ce565b9050919050565b60006020820190508181036000830152612ac3816126f1565b9050919050565b60006020820190508181036000830152612ae381612714565b9050919050565b60006020820190508181036000830152612b0381612737565b9050919050565b60006020820190508181036000830152612b238161275a565b9050919050565b60006020820190508181036000830152612b438161277d565b9050919050565b60006020820190508181036000830152612b63816127a0565b9050919050565b60006020820190508181036000830152612b83816127c3565b9050919050565b60006020820190508181036000830152612ba3816127e6565b9050919050565b60006020820190508181036000830152612bc381612809565b9050919050565b60006020820190508181036000830152612be38161282c565b9050919050565b60006020820190508181036000830152612c038161284f565b9050919050565b60006020820190508181036000830152612c2381612872565b9050919050565b60006020820190508181036000830152612c43816128db565b9050919050565b6000602082019050612c5f60008301846128fe565b92915050565b6000612c6f612c80565b9050612c7b8282612f5b565b919050565b6000604051905090565b600067ffffffffffffffff821115612ca557612ca4613093565b5b602082029050602081019050919050565b600067ffffffffffffffff821115612cd157612cd0613093565b5b612cda826130c2565b9050602081019050919050565b600081519050919050565b600081519050919050565b600082825260208201905092915050565b600082825260208201905092915050565b600081905092915050565b6000612d3582612eb3565b9150612d4083612eb3565b9250827fffffffffffffffffffffffffffffffffffffffffffffffffffffffffffffffff03821115612d7557612d74613006565b5b828201905092915050565b6000612d8b82612eb3565b9150612d9683612eb3565b925082612da657612da5613035565b5b828204905092915050565b6000612dbc82612eb3565b9150612dc783612eb3565b9250817fffffffffffffffffffffffffffffffffffffffffffffffffffffffffffffffff0483118215151615612e0057612dff613006565b5b828202905092915050565b6000612e1682612eb3565b9150612e2183612eb3565b925082821015612e3457612e33613006565b5b828203905092915050565b6000612e4a82612e93565b9050919050565b60008115159050919050565b6000819050919050565b60007fffffffff0000000000000000000000000000000000000000000000000000000082169050919050565b600073ffffffffffffffffffffffffffffffffffffffff82169050919050565b6000819050919050565b82818337600083830152505050565b60005b83811015612eea578082015181840152602081019050612ecf565b83811115612ef9576000848401525b50505050565b6000612f0a82612eb3565b91506000821415612f1e57612f1d613006565b5b600182039050919050565b60006002820490506001821680612f4157607f821691505b60208210811415612f5557612f54613064565b5b50919050565b612f64826130c2565b810181811067ffffffffffffffff82111715612f8357612f82613093565b5b80604052505050565b6000612f9782612eb3565b91507fffffffffffffffffffffffffffffffffffffffffffffffffffffffffffffffff821415612fca57612fc9613006565b5b600182019050919050565b6000612fe082612eb3565b9150612feb83612eb3565b925082612ffb57612ffa613035565b5b828206905092915050565b7f4e487b7100000000000000000000000000000000000000000000000000000000600052601160045260246000fd5b7f4e487b7100000000000000000000000000000000000000000000000000000000600052601260045260246000fd5b7f4e487b7100000000000000000000000000000000000000000000000000000000600052602260045260246000fd5b7f4e487b7100000000000000000000000000000000000000000000000000000000600052604160045260246000fd5b6000601f19601f8301169050919050565b7f537472696e67733a20686578206c656e67746820696e73756666696369656e74600082015250565b7f4552433732313a207472616e7366657220746f206e6f6e20455243373231526560008201527f63656976657220696d706c656d656e7465720000000000000000000000000000602082015250565b7f4552433732313a207472616e736665722066726f6d20696e636f72726563742060008201527f6f776e6572000000000000000000000000000000000000000000000000000000602082015250565b7f4552433732313a20746f6b656e20616c7265616479206d696e74656400000000600082015250565b7f4552433732313a207472616e7366657220746f20746865207a65726f2061646460008201527f7265737300000000000000000000000000000000000000000000000000000000602082015250565b7f4552433732313a20617070726f766520746f2063616c6c657200000000000000600082015250565b7f4552433732313a206f70657261746f7220717565727920666f72206e6f6e657860008201527f697374656e7420746f6b656e0000000000000000000000000000000000000000602082015250565b7f4552433732313a20617070726f76652063616c6c6572206973206e6f74206f7760008201527f6e6572206e6f7220617070726f76656420666f7220616c6c0000000000000000602082015250565b7f4552433732313a2062616c616e636520717565727920666f7220746865207a6560008201527f726f206164647265737300000000000000000000000000000000000000000000602082015250565b7f4552433732313a206f776e657220717565727920666f72206e6f6e657869737460008201527f656e7420746f6b656e0000000000000000000000000000000000000000000000602082015250565b7f4552433732313a206d696e7420746f20746865207a65726f2061646472657373600082015250565b7f4552433732313a20617070726f76656420717565727920666f72206e6f6e657860008201527f697374656e7420746f6b656e0000000000000000000000000000000000000000602082015250565b7f4552433732314d657461646174613a2055524920717565727920666f72206e6f60008201527f6e6578697374656e7420746f6b656e0000000000000000000000000000000000602082015250565b7f4552433732313a20617070726f76616c20746f2063757272656e74206f776e6560008201527f7200000000000000000000000000000000000000000000000000000000000000602082015250565b7f4e6f7420656e6f7567682066756e647320746f206d696e742e00000000000000600082015250565b7f4552433732313a207472616e736665722063616c6c6572206973206e6f74206f60008201527f776e6572206e6f7220617070726f766564000000000000000000000000000000602082015250565b7f416363657373436f6e74726f6c3a206163636f756e7420000000000000000000600082015250565b7f206973206d697373696e6720726f6c6520000000000000000000000000000000600082015250565b7f416363657373436f6e74726f6c3a2063616e206f6e6c792072656e6f756e636560008201527f20726f6c657320666f722073656c660000000000000000000000000000000000602082015250565b6135af81612e3f565b81146135ba57600080fd5b50565b6135c681612e51565b81146135d157600080fd5b50565b6135dd81612e5d565b81146135e857600080fd5b50565b6135f481612e67565b81146135ff57600080fd5b50565b61360b81612eb3565b811461361657600080fd5b5056fea26469706673582212209f8f85f59914747c45ca3475b4be738a13d8bd973375a8921bd81c2517197c0764736f6c63430008010033",
  "immutableReferences": {},
  "source": "/**\r\n// SPDX-License-Identifier: MIT\r\n */\r\npragma solidity ^0.8.0;\r\n\r\nimport \"@openzeppelin/contracts/token/ERC721/ERC721.sol\";\r\nimport \"@openzeppelin/contracts/access/AccessControl.sol\";\r\n\r\n\r\ncontract MyToken is ERC721, AccessControl {\r\n    bytes32 public constant MINTER_ROLE = keccak256(\"MINTER_ROLE\");\r\n\r\n    constructor() ERC721(\"MyToken\", \"MyToken\") {\r\n        _setupRole(MINTER_ROLE, msg.sender);\r\n    }\r\n\r\n    function mint(address account, uint256 tokenId) public payable onlyRole(MINTER_ROLE)  {\r\n        //require(msg.value == 0.1 ether, \"Not enough funds to mint.\");\r\n        _mint(account, tokenId);\r\n    }\r\n    function batchMint(address to, uint256[] memory tokenIds) public payable onlyRole(MINTER_ROLE) {\r\n        require(msg.value == 0.1 ether * tokenIds.length, \"Not enough funds to mint.\");\r\n\r\n        for (uint256 i = 0; i < tokenIds.length; i++) {\r\n            _mint(to, tokenIds[i]);\r\n        }\r\n    }\r\n\r\n    function supportsInterface(bytes4 interfaceId)\r\n        public\r\n        view\r\n        virtual\r\n        override(AccessControl, ERC721)\r\n        returns (bool)\r\n    {\r\n        return super.supportsInterface(interfaceId);\r\n    }\r\n\r\n    \r\n}",
  "sourcePath": "C:\\Users\\Samuel Cheng\\Desktop\\Solidity-EVM-Dev-Batch-1-HW\\graduation_project\\bsc-eth-bridge\\contracts\\MyERC721.sol",
  "compiler": {
    "name": "solc",
    "version": "0.8.1+commit.df193b15.Emscripten.clang"
  },
  "schemaVersion": "3.4.5",
  "updatedAt": "2022-02-24T13:52:42.348Z",
  "devdoc": {
    "kind": "dev",
    "methods": {
      "approve(address,uint256)": {
        "details": "See {IERC721-approve}."
      },
      "balanceOf(address)": {
        "details": "See {IERC721-balanceOf}."
      },
      "getApproved(uint256)": {
        "details": "See {IERC721-getApproved}."
      },
      "getRoleAdmin(bytes32)": {
        "details": "Returns the admin role that controls `role`. See {grantRole} and {revokeRole}. To change a role's admin, use {_setRoleAdmin}."
      },
      "grantRole(bytes32,address)": {
        "details": "Grants `role` to `account`. If `account` had not been already granted `role`, emits a {RoleGranted} event. Requirements: - the caller must have ``role``'s admin role."
      },
      "hasRole(bytes32,address)": {
        "details": "Returns `true` if `account` has been granted `role`."
      },
      "isApprovedForAll(address,address)": {
        "details": "See {IERC721-isApprovedForAll}."
      },
      "name()": {
        "details": "See {IERC721Metadata-name}."
      },
      "ownerOf(uint256)": {
        "details": "See {IERC721-ownerOf}."
      },
      "renounceRole(bytes32,address)": {
        "details": "Revokes `role` from the calling account. Roles are often managed via {grantRole} and {revokeRole}: this function's purpose is to provide a mechanism for accounts to lose their privileges if they are compromised (such as when a trusted device is misplaced). If the calling account had been revoked `role`, emits a {RoleRevoked} event. Requirements: - the caller must be `account`."
      },
      "revokeRole(bytes32,address)": {
        "details": "Revokes `role` from `account`. If `account` had been granted `role`, emits a {RoleRevoked} event. Requirements: - the caller must have ``role``'s admin role."
      },
      "safeTransferFrom(address,address,uint256)": {
        "details": "See {IERC721-safeTransferFrom}."
      },
      "safeTransferFrom(address,address,uint256,bytes)": {
        "details": "See {IERC721-safeTransferFrom}."
      },
      "setApprovalForAll(address,bool)": {
        "details": "See {IERC721-setApprovalForAll}."
      },
      "symbol()": {
        "details": "See {IERC721Metadata-symbol}."
      },
      "tokenURI(uint256)": {
        "details": "See {IERC721Metadata-tokenURI}."
      },
      "transferFrom(address,address,uint256)": {
        "details": "See {IERC721-transferFrom}."
      }
    },
    "version": 1
  },
  "userdoc": {
    "kind": "user",
    "methods": {},
    "version": 1
  }
}