{
  "contractName": "TokenEth",
  "abi": [
    {
      "inputs": [],
      "stateMutability": "nonpayable",
      "type": "constructor"
    },
    {
      "anonymous": false,
      "inputs": [
        {
          "indexed": true,
          "internalType": "address",
          "name": "owner",
          "type": "address"
        },
        {
          "indexed": true,
          "internalType": "address",
          "name": "spender",
          "type": "address"
        },
        {
          "indexed": false,
          "internalType": "uint256",
          "name": "value",
          "type": "uint256"
        }
      ],
      "name": "Approval",
      "type": "event"
    },
    {
      "anonymous": false,
      "inputs": [
        {
          "indexed": true,
          "internalType": "address",
          "name": "from",
          "type": "address"
        },
        {
          "indexed": true,
          "internalType": "address",
          "name": "to",
          "type": "address"
        },
        {
          "indexed": false,
          "internalType": "uint256",
          "name": "value",
          "type": "uint256"
        }
      ],
      "name": "Transfer",
      "type": "event"
    },
    {
      "inputs": [
        {
          "internalType": "uint256",
          "name": "",
          "type": "uint256"
        }
      ],
      "name": "AllTokenId",
      "outputs": [
        {
          "internalType": "uint256",
          "name": "",
          "type": "uint256"
        }
      ],
      "stateMutability": "view",
      "type": "function"
    },
    {
      "inputs": [],
      "name": "admin",
      "outputs": [
        {
          "internalType": "address",
          "name": "",
          "type": "address"
        }
      ],
      "stateMutability": "view",
      "type": "function"
    },
    {
      "inputs": [
        {
          "internalType": "address",
          "name": "owner",
          "type": "address"
        },
        {
          "internalType": "address",
          "name": "spender",
          "type": "address"
        }
      ],
      "name": "allowance",
      "outputs": [
        {
          "internalType": "uint256",
          "name": "",
          "type": "uint256"
        }
      ],
      "stateMutability": "view",
      "type": "function"
    },
    {
      "inputs": [
        {
          "internalType": "address",
          "name": "spender",
          "type": "address"
        },
        {
          "internalType": "uint256",
          "name": "amount",
          "type": "uint256"
        }
      ],
      "name": "approve",
      "outputs": [
        {
          "internalType": "bool",
          "name": "",
          "type": "bool"
        }
      ],
      "stateMutability": "nonpayable",
      "type": "function"
    },
    {
      "inputs": [
        {
          "internalType": "address",
          "name": "account",
          "type": "address"
        }
      ],
      "name": "balanceOf",
      "outputs": [
        {
          "internalType": "uint256",
          "name": "",
          "type": "uint256"
        }
      ],
      "stateMutability": "view",
      "type": "function"
    },
    {
      "inputs": [
        {
          "internalType": "address",
          "name": "owner",
          "type": "address"
        },
        {
          "internalType": "uint256",
          "name": "amount",
          "type": "uint256"
        }
      ],
      "name": "burn",
      "outputs": [],
      "stateMutability": "nonpayable",
      "type": "function"
    },
    {
      "inputs": [],
      "name": "decimals",
      "outputs": [
        {
          "internalType": "uint8",
          "name": "",
          "type": "uint8"
        }
      ],
      "stateMutability": "view",
      "type": "function"
    },
    {
      "inputs": [
        {
          "internalType": "address",
          "name": "spender",
          "type": "address"
        },
        {
          "internalType": "uint256",
          "name": "subtractedValue",
          "type": "uint256"
        }
      ],
      "name": "decreaseAllowance",
      "outputs": [
        {
          "internalType": "bool",
          "name": "",
          "type": "bool"
        }
      ],
      "stateMutability": "nonpayable",
      "type": "function"
    },
    {
      "inputs": [
        {
          "internalType": "address",
          "name": "spender",
          "type": "address"
        },
        {
          "internalType": "uint256",
          "name": "addedValue",
          "type": "uint256"
        }
      ],
      "name": "increaseAllowance",
      "outputs": [
        {
          "internalType": "bool",
          "name": "",
          "type": "bool"
        }
      ],
      "stateMutability": "nonpayable",
      "type": "function"
    },
    {
      "inputs": [
        {
          "internalType": "address",
          "name": "to",
          "type": "address"
        },
        {
          "internalType": "uint256",
          "name": "amount",
          "type": "uint256"
        }
      ],
      "name": "mint",
      "outputs": [],
      "stateMutability": "nonpayable",
      "type": "function"
    },
    {
      "inputs": [],
      "name": "name",
      "outputs": [
        {
          "internalType": "string",
          "name": "",
          "type": "string"
        }
      ],
      "stateMutability": "view",
      "type": "function"
    },
    {
      "inputs": [
        {
          "internalType": "address",
          "name": "operator",
          "type": "address"
        },
        {
          "internalType": "address",
          "name": "",
          "type": "address"
        },
        {
          "internalType": "uint256",
          "name": "",
          "type": "uint256"
        },
        {
          "internalType": "bytes",
          "name": "",
          "type": "bytes"
        }
      ],
      "name": "onERC721Received",
      "outputs": [
        {
          "internalType": "bytes4",
          "name": "",
          "type": "bytes4"
        }
      ],
      "stateMutability": "nonpayable",
      "type": "function"
    },
    {
      "inputs": [],
      "name": "symbol",
      "outputs": [
        {
          "internalType": "string",
          "name": "",
          "type": "string"
        }
      ],
      "stateMutability": "view",
      "type": "function"
    },
    {
      "inputs": [],
      "name": "totalSupply",
      "outputs": [
        {
          "internalType": "uint256",
          "name": "",
          "type": "uint256"
        }
      ],
      "stateMutability": "view",
      "type": "function"
    },
    {
      "inputs": [
        {
          "internalType": "address",
          "name": "to",
          "type": "address"
        },
        {
          "internalType": "uint256",
          "name": "amount",
          "type": "uint256"
        }
      ],
      "name": "transfer",
      "outputs": [
        {
          "internalType": "bool",
          "name": "",
          "type": "bool"
        }
      ],
      "stateMutability": "nonpayable",
      "type": "function"
    },
    {
      "inputs": [
        {
          "internalType": "address",
          "name": "from",
          "type": "address"
        },
        {
          "internalType": "address",
          "name": "to",
          "type": "address"
        },
        {
          "internalType": "uint256",
          "name": "amount",
          "type": "uint256"
        }
      ],
      "name": "transferFrom",
      "outputs": [
        {
          "internalType": "bool",
          "name": "",
          "type": "bool"
        }
      ],
      "stateMutability": "nonpayable",
      "type": "function"
    },
    {
      "inputs": [
        {
          "internalType": "address",
          "name": "newAdmin",
          "type": "address"
        }
      ],
      "name": "updateAdmin",
      "outputs": [],
      "stateMutability": "nonpayable",
      "type": "function"
    },
    {
      "inputs": [],
      "name": "getAllTokenId",
      "outputs": [
        {
          "internalType": "uint256[]",
          "name": "",
          "type": "uint256[]"
        }
      ],
      "stateMutability": "view",
      "type": "function"
    },
    {
      "inputs": [
        {
          "internalType": "uint256",
          "name": "tokenId",
          "type": "uint256"
        }
      ],
      "name": "isTokenIdInThisContract",
      "outputs": [
        {
          "internalType": "bool",
          "name": "",
          "type": "bool"
        }
      ],
      "stateMutability": "view",
      "type": "function"
    },
    {
      "inputs": [
        {
          "internalType": "address",
          "name": "_assetAddress",
          "type": "address"
        }
      ],
      "name": "setAssetAddress",
      "outputs": [],
      "stateMutability": "nonpayable",
      "type": "function"
    },
    {
      "inputs": [],
      "name": "getAssetAddres",
      "outputs": [
        {
          "internalType": "address",
          "name": "",
          "type": "address"
        }
      ],
      "stateMutability": "view",
      "type": "function"
    },
    {
      "inputs": [
        {
          "internalType": "address",
          "name": "to",
          "type": "address"
        },
        {
          "internalType": "uint256",
          "name": "tokenId",
          "type": "uint256"
        }
      ],
      "name": "swapForNftStableCoin",
      "outputs": [],
      "stateMutability": "nonpayable",
      "type": "function"
    },
    {
      "inputs": [
        {
          "internalType": "address",
          "name": "owner",
          "type": "address"
        },
        {
          "internalType": "uint256",
          "name": "tokenId",
          "type": "uint256"
        }
      ],
      "name": "redeemNftStableCoinToNft",
      "outputs": [],
      "stateMutability": "nonpayable",
      "type": "function"
    },
    {
      "inputs": [
        {
          "internalType": "uint256",
          "name": "tokenId",
          "type": "uint256"
        }
      ],
      "name": "NFTflashloan",
      "outputs": [],
      "stateMutability": "nonpayable",
      "type": "function"
    }
  ],
  "bytecode": "0x60806040523480156200001157600080fd5b506040518060400160405280600981526020017f45544820546f6b656e00000000000000000000000000000000000000000000008152506040518060400160405280600381526020017f45544b00000000000000000000000000000000000000000000000000000000008152508181816003908051906020019062000098929190620000fd565b508060049080519060200190620000b1929190620000fd565b50505033600560006101000a81548173ffffffffffffffffffffffffffffffffffffffff021916908373ffffffffffffffffffffffffffffffffffffffff160217905550505062000212565b8280546200010b90620001ad565b90600052602060002090601f0160209004810192826200012f57600085556200017b565b82601f106200014a57805160ff19168380011785556200017b565b828001600101855582156200017b579182015b828111156200017a5782518255916020019190600101906200015d565b5b5090506200018a91906200018e565b5090565b5b80821115620001a95760008160009055506001016200018f565b5090565b60006002820490506001821680620001c657607f821691505b60208210811415620001dd57620001dc620001e3565b5b50919050565b7f4e487b7100000000000000000000000000000000000000000000000000000000600052602260045260246000fd5b612d4d80620002226000396000f3fe608060405234801561001057600080fd5b50600436106101585760003560e01c806370a08231116100c3578063a6a7edd91161007c578063a6a7edd9146103ed578063a9059cbb1461041d578063b92900d31461044d578063dd62ed3e14610469578063e2f273bd14610499578063f851a440146104b557610158565b806370a082311461031b578063770e09fd1461034b578063943719471461036757806395d89b41146103835780639dc29fac146103a1578063a457c2d7146103bd57610158565b806326daf6e81161011557806326daf6e814610247578063313ce56714610265578063395093511461028357806340c10f19146102b357806358577814146102cf5780635a1b3740146102eb57610158565b8063047640891461015d57806306fdde031461017b578063095ea7b314610199578063150b7a02146101c957806318160ddd146101f957806323b872dd14610217575b600080fd5b6101656104d3565b60405161017291906122c7565b60405180910390f35b61018361052b565b604051610190919061231f565b60405180910390f35b6101b360048036038101906101ae9190611e8f565b6105bd565b6040516101c091906122e9565b60405180910390f35b6101e360048036038101906101de9190611e14565b6105e0565b6040516101f09190612304565b60405180910390f35b6102016105f4565b60405161020e9190612541565b60405180910390f35b610231600480360381019061022c9190611dc5565b6105fe565b60405161023e91906122e9565b60405180910390f35b61024f61062d565b60405161025c9190612275565b60405180910390f35b61026d610657565b60405161027a919061255c565b60405180910390f35b61029d60048036038101906102989190611e8f565b610660565b6040516102aa91906122e9565b60405180910390f35b6102cd60048036038101906102c89190611e8f565b61070a565b005b6102e960048036038101906102e49190611e8f565b6107a8565b005b61030560048036038101906103009190611ecb565b6109aa565b6040516103129190612541565b60405180910390f35b61033560048036038101906103309190611d37565b6109ce565b6040516103429190612541565b60405180910390f35b61036560048036038101906103609190611d37565b610a16565b005b610381600480360381019061037c9190611ecb565b610aea565b005b61038b610d49565b604051610398919061231f565b60405180910390f35b6103bb60048036038101906103b69190611e8f565b610ddb565b005b6103d760048036038101906103d29190611e8f565b610e79565b6040516103e491906122e9565b60405180910390f35b61040760048036038101906104029190611ecb565b610f63565b60405161041491906122e9565b60405180910390f35b61043760048036038101906104329190611e8f565b611045565b60405161044491906122e9565b60405180910390f35b61046760048036038101906104629190611e8f565b611068565b005b610483600480360381019061047e9190611d89565b6112ee565b6040516104909190612541565b60405180910390f35b6104b360048036038101906104ae9190611d37565b611375565b005b6104bd611449565b6040516104ca9190612275565b60405180910390f35b6060600780548060200260200160405190810160405280929190818152602001828054801561052157602002820191906000526020600020905b81548152602001906001019080831161050d575b5050505050905090565b60606003805461053a906127df565b80601f0160208091040260200160405190810160405280929190818152602001828054610566906127df565b80156105b35780601f10610588576101008083540402835291602001916105b3565b820191906000526020600020905b81548152906001019060200180831161059657829003601f168201915b5050505050905090565b6000806105c861146f565b90506105d5818585611477565b600191505092915050565b600063150b7a0260e01b9050949350505050565b6000600254905090565b60008061060961146f565b9050610616858285611642565b6106218585856116ce565b60019150509392505050565b6000600660009054906101000a900473ffffffffffffffffffffffffffffffffffffffff16905090565b60006012905090565b60008061066b61146f565b90506106ff818585600160008673ffffffffffffffffffffffffffffffffffffffff1673ffffffffffffffffffffffffffffffffffffffff16815260200190815260200160002060008973ffffffffffffffffffffffffffffffffffffffff1673ffffffffffffffffffffffffffffffffffffffff168152602001908152602001600020546106fa9190612638565b611477565b600191505092915050565b600560009054906101000a900473ffffffffffffffffffffffffffffffffffffffff1673ffffffffffffffffffffffffffffffffffffffff163373ffffffffffffffffffffffffffffffffffffffff161461079a576040517f08c379a0000000000000000000000000000000000000000000000000000000008152600401610791906123e1565b60405180910390fd5b6107a4828261194f565b5050565b600073ffffffffffffffffffffffffffffffffffffffff16600660009054906101000a900473ffffffffffffffffffffffffffffffffffffffff1673ffffffffffffffffffffffffffffffffffffffff16141561083a576040517f08c379a000000000000000000000000000000000000000000000000000000000815260040161083190612441565b60405180910390fd5b600660009054906101000a900473ffffffffffffffffffffffffffffffffffffffff1673ffffffffffffffffffffffffffffffffffffffff166342842e0e3033846040518463ffffffff1660e01b815260040161089993929190612290565b600060405180830381600087803b1580156108b357600080fd5b505af11580156108c7573d6000803e3d6000fd5b5050505060005b600780549050811015610987578160078281548110610916577f4e487b7100000000000000000000000000000000000000000000000000000000600052603260045260246000fd5b906000526020600020015414156109745760078181548110610961577f4e487b7100000000000000000000000000000000000000000000000000000000600052603260045260246000fd5b9060005260206000200160009055610987565b808061097f90612842565b9150506108ce565b506109a6826001670de0b6b3a76400006109a1919061268e565b611aaf565b5050565b600781815481106109ba57600080fd5b906000526020600020016000915090505481565b60008060008373ffffffffffffffffffffffffffffffffffffffff1673ffffffffffffffffffffffffffffffffffffffff168152602001908152602001600020549050919050565b600560009054906101000a900473ffffffffffffffffffffffffffffffffffffffff1673ffffffffffffffffffffffffffffffffffffffff163373ffffffffffffffffffffffffffffffffffffffff1614610aa6576040517f08c379a0000000000000000000000000000000000000000000000000000000008152600401610a9d906123e1565b60405180910390fd5b80600660006101000a81548173ffffffffffffffffffffffffffffffffffffffff021916908373ffffffffffffffffffffffffffffffffffffffff16021790555050565b610af381610f63565b610b32576040517f08c379a0000000000000000000000000000000000000000000000000000000008152600401610b29906124c1565b60405180910390fd5b600660009054906101000a900473ffffffffffffffffffffffffffffffffffffffff1673ffffffffffffffffffffffffffffffffffffffff166342842e0e3033846040518463ffffffff1660e01b8152600401610b9193929190612290565b600060405180830381600087803b158015610bab57600080fd5b505af1158015610bbf573d6000803e3d6000fd5b5050505060003373ffffffffffffffffffffffffffffffffffffffff1682604051602401610bed9190612541565b6040516020818303038152906040527f4fd9cb81000000000000000000000000000000000000000000000000000000007bffffffffffffffffffffffffffffffffffffffffffffffffffffffff19166020820180517bffffffffffffffffffffffffffffffffffffffffffffffffffffffff8381831617835250505050604051610c77919061225e565b6000604051808303816000865af19150503d8060008114610cb4576040519150601f19603f3d011682016040523d82523d6000602084013e610cb9565b606091505b5050905080610cfd576040517f08c379a0000000000000000000000000000000000000000000000000000000008152600401610cf490612401565b60405180910390fd5b610d0682610f63565b610d45576040517f08c379a0000000000000000000000000000000000000000000000000000000008152600401610d3c906124e1565b60405180910390fd5b5050565b606060048054610d58906127df565b80601f0160208091040260200160405190810160405280929190818152602001828054610d84906127df565b8015610dd15780601f10610da657610100808354040283529160200191610dd1565b820191906000526020600020905b815481529060010190602001808311610db457829003601f168201915b5050505050905090565b600560009054906101000a900473ffffffffffffffffffffffffffffffffffffffff1673ffffffffffffffffffffffffffffffffffffffff163373ffffffffffffffffffffffffffffffffffffffff1614610e6b576040517f08c379a0000000000000000000000000000000000000000000000000000000008152600401610e62906123e1565b60405180910390fd5b610e758282611aaf565b5050565b600080610e8461146f565b90506000600160008373ffffffffffffffffffffffffffffffffffffffff1673ffffffffffffffffffffffffffffffffffffffff16815260200190815260200160002060008673ffffffffffffffffffffffffffffffffffffffff1673ffffffffffffffffffffffffffffffffffffffff16815260200190815260200160002054905083811015610f4a576040517f08c379a0000000000000000000000000000000000000000000000000000000008152600401610f4190612501565b60405180910390fd5b610f578286868403611477565b60019250505092915050565b60003073ffffffffffffffffffffffffffffffffffffffff16600660009054906101000a900473ffffffffffffffffffffffffffffffffffffffff1673ffffffffffffffffffffffffffffffffffffffff16636352211e846040518263ffffffff1660e01b8152600401610fd79190612541565b60206040518083038186803b158015610fef57600080fd5b505afa158015611003573d6000803e3d6000fd5b505050506040513d601f19601f820116820180604052508101906110279190611d60565b73ffffffffffffffffffffffffffffffffffffffff16149050919050565b60008061105061146f565b905061105d8185856116ce565b600191505092915050565b600073ffffffffffffffffffffffffffffffffffffffff16600660009054906101000a900473ffffffffffffffffffffffffffffffffffffffff1673ffffffffffffffffffffffffffffffffffffffff1614156110fa576040517f08c379a00000000000000000000000000000000000000000000000000000000081526004016110f190612441565b60405180910390fd5b3073ffffffffffffffffffffffffffffffffffffffff16600660009054906101000a900473ffffffffffffffffffffffffffffffffffffffff1673ffffffffffffffffffffffffffffffffffffffff1663081812fc836040518263ffffffff1660e01b815260040161116c9190612541565b60206040518083038186803b15801561118457600080fd5b505afa158015611198573d6000803e3d6000fd5b505050506040513d601f19601f820116820180604052508101906111bc9190611d60565b73ffffffffffffffffffffffffffffffffffffffff1614611212576040517f08c379a0000000000000000000000000000000000000000000000000000000008152600401611209906124a1565b60405180910390fd5b600660009054906101000a900473ffffffffffffffffffffffffffffffffffffffff1673ffffffffffffffffffffffffffffffffffffffff166342842e0e3330846040518463ffffffff1660e01b815260040161127193929190612290565b600060405180830381600087803b15801561128b57600080fd5b505af115801561129f573d6000803e3d6000fd5b5050505060078190806001815401808255809150506001900390600052602060002001600090919091909150556112ea826001670de0b6b3a76400006112e5919061268e565b61194f565b5050565b6000600160008473ffffffffffffffffffffffffffffffffffffffff1673ffffffffffffffffffffffffffffffffffffffff16815260200190815260200160002060008373ffffffffffffffffffffffffffffffffffffffff1673ffffffffffffffffffffffffffffffffffffffff16815260200190815260200160002054905092915050565b600560009054906101000a900473ffffffffffffffffffffffffffffffffffffffff1673ffffffffffffffffffffffffffffffffffffffff163373ffffffffffffffffffffffffffffffffffffffff1614611405576040517f08c379a00000000000000000000000000000000000000000000000000000000081526004016113fc906123e1565b60405180910390fd5b80600560006101000a81548173ffffffffffffffffffffffffffffffffffffffff021916908373ffffffffffffffffffffffffffffffffffffffff16021790555050565b600560009054906101000a900473ffffffffffffffffffffffffffffffffffffffff1681565b600033905090565b600073ffffffffffffffffffffffffffffffffffffffff168373ffffffffffffffffffffffffffffffffffffffff1614156114e7576040517f08c379a00000000000000000000000000000000000000000000000000000000081526004016114de90612481565b60405180910390fd5b600073ffffffffffffffffffffffffffffffffffffffff168273ffffffffffffffffffffffffffffffffffffffff161415611557576040517f08c379a000000000000000000000000000000000000000000000000000000000815260040161154e90612381565b60405180910390fd5b80600160008573ffffffffffffffffffffffffffffffffffffffff1673ffffffffffffffffffffffffffffffffffffffff16815260200190815260200160002060008473ffffffffffffffffffffffffffffffffffffffff1673ffffffffffffffffffffffffffffffffffffffff168152602001908152602001600020819055508173ffffffffffffffffffffffffffffffffffffffff168373ffffffffffffffffffffffffffffffffffffffff167f8c5be1e5ebec7d5bd14f71427d1e84f3dd0314c0f7b2291e5b200ac8c7c3b925836040516116359190612541565b60405180910390a3505050565b600061164e84846112ee565b90507fffffffffffffffffffffffffffffffffffffffffffffffffffffffffffffffff81146116c857818110156116ba576040517f08c379a00000000000000000000000000000000000000000000000000000000081526004016116b1906123a1565b60405180910390fd5b6116c78484848403611477565b5b50505050565b600073ffffffffffffffffffffffffffffffffffffffff168373ffffffffffffffffffffffffffffffffffffffff16141561173e576040517f08c379a000000000000000000000000000000000000000000000000000000000815260040161173590612461565b60405180910390fd5b600073ffffffffffffffffffffffffffffffffffffffff168273ffffffffffffffffffffffffffffffffffffffff1614156117ae576040517f08c379a00000000000000000000000000000000000000000000000000000000081526004016117a590612341565b60405180910390fd5b6117b9838383611c86565b60008060008573ffffffffffffffffffffffffffffffffffffffff1673ffffffffffffffffffffffffffffffffffffffff1681526020019081526020016000205490508181101561183f576040517f08c379a0000000000000000000000000000000000000000000000000000000008152600401611836906123c1565b60405180910390fd5b8181036000808673ffffffffffffffffffffffffffffffffffffffff1673ffffffffffffffffffffffffffffffffffffffff16815260200190815260200160002081905550816000808573ffffffffffffffffffffffffffffffffffffffff1673ffffffffffffffffffffffffffffffffffffffff16815260200190815260200160002060008282546118d29190612638565b925050819055508273ffffffffffffffffffffffffffffffffffffffff168473ffffffffffffffffffffffffffffffffffffffff167fddf252ad1be2c89b69c2b068fc378daa952ba7f163c4a11628f55a4df523b3ef846040516119369190612541565b60405180910390a3611949848484611c8b565b50505050565b600073ffffffffffffffffffffffffffffffffffffffff168273ffffffffffffffffffffffffffffffffffffffff1614156119bf576040517f08c379a00000000000000000000000000000000000000000000000000000000081526004016119b690612521565b60405180910390fd5b6119cb60008383611c86565b80600260008282546119dd9190612638565b92505081905550806000808473ffffffffffffffffffffffffffffffffffffffff1673ffffffffffffffffffffffffffffffffffffffff1681526020019081526020016000206000828254611a329190612638565b925050819055508173ffffffffffffffffffffffffffffffffffffffff16600073ffffffffffffffffffffffffffffffffffffffff167fddf252ad1be2c89b69c2b068fc378daa952ba7f163c4a11628f55a4df523b3ef83604051611a979190612541565b60405180910390a3611aab60008383611c8b565b5050565b600073ffffffffffffffffffffffffffffffffffffffff168273ffffffffffffffffffffffffffffffffffffffff161415611b1f576040517f08c379a0000000000000000000000000000000000000000000000000000000008152600401611b1690612421565b60405180910390fd5b611b2b82600083611c86565b60008060008473ffffffffffffffffffffffffffffffffffffffff1673ffffffffffffffffffffffffffffffffffffffff16815260200190815260200160002054905081811015611bb1576040517f08c379a0000000000000000000000000000000000000000000000000000000008152600401611ba890612361565b60405180910390fd5b8181036000808573ffffffffffffffffffffffffffffffffffffffff1673ffffffffffffffffffffffffffffffffffffffff168152602001908152602001600020819055508160026000828254611c0891906126e8565b92505081905550600073ffffffffffffffffffffffffffffffffffffffff168373ffffffffffffffffffffffffffffffffffffffff167fddf252ad1be2c89b69c2b068fc378daa952ba7f163c4a11628f55a4df523b3ef84604051611c6d9190612541565b60405180910390a3611c8183600084611c8b565b505050565b505050565b505050565b6000611ca3611c9e8461259c565b612577565b905082815260208101848484011115611cbb57600080fd5b611cc684828561279d565b509392505050565b600081359050611cdd81612ce9565b92915050565b600081519050611cf281612ce9565b92915050565b600082601f830112611d0957600080fd5b8135611d19848260208601611c90565b91505092915050565b600081359050611d3181612d00565b92915050565b600060208284031215611d4957600080fd5b6000611d5784828501611cce565b91505092915050565b600060208284031215611d7257600080fd5b6000611d8084828501611ce3565b91505092915050565b60008060408385031215611d9c57600080fd5b6000611daa85828601611cce565b9250506020611dbb85828601611cce565b9150509250929050565b600080600060608486031215611dda57600080fd5b6000611de886828701611cce565b9350506020611df986828701611cce565b9250506040611e0a86828701611d22565b9150509250925092565b60008060008060808587031215611e2a57600080fd5b6000611e3887828801611cce565b9450506020611e4987828801611cce565b9350506040611e5a87828801611d22565b925050606085013567ffffffffffffffff811115611e7757600080fd5b611e8387828801611cf8565b91505092959194509250565b60008060408385031215611ea257600080fd5b6000611eb085828601611cce565b9250506020611ec185828601611d22565b9150509250929050565b600060208284031215611edd57600080fd5b6000611eeb84828501611d22565b91505092915050565b6000611f008383612231565b60208301905092915050565b611f158161271c565b82525050565b6000611f26826125dd565b611f30818561260b565b9350611f3b836125cd565b8060005b83811015611f6c578151611f538882611ef4565b9750611f5e836125fe565b925050600181019050611f3f565b5085935050505092915050565b611f828161272e565b82525050565b611f918161273a565b82525050565b6000611fa2826125e8565b611fac818561261c565b9350611fbc8185602086016127ac565b80840191505092915050565b6000611fd3826125f3565b611fdd8185612627565b9350611fed8185602086016127ac565b611ff681612918565b840191505092915050565b600061200e602383612627565b915061201982612929565b604082019050919050565b6000612031602283612627565b915061203c82612978565b604082019050919050565b6000612054602283612627565b915061205f826129c7565b604082019050919050565b6000612077601d83612627565b915061208282612a16565b602082019050919050565b600061209a602683612627565b91506120a582612a3f565b604082019050919050565b60006120bd600a83612627565b91506120c882612a8e565b602082019050919050565b60006120e0601483612627565b91506120eb82612ab7565b602082019050919050565b6000612103602183612627565b915061210e82612ae0565b604082019050919050565b6000612126601483612627565b915061213182612b2f565b602082019050919050565b6000612149602583612627565b915061215482612b58565b604082019050919050565b600061216c602483612627565b915061217782612ba7565b604082019050919050565b600061218f601083612627565b915061219a82612bf6565b602082019050919050565b60006121b2601d83612627565b91506121bd82612c1f565b602082019050919050565b60006121d5601c83612627565b91506121e082612c48565b602082019050919050565b60006121f8602583612627565b915061220382612c71565b604082019050919050565b600061221b601f83612627565b915061222682612cc0565b602082019050919050565b61223a81612786565b82525050565b61224981612786565b82525050565b61225881612790565b82525050565b600061226a8284611f97565b915081905092915050565b600060208201905061228a6000830184611f0c565b92915050565b60006060820190506122a56000830186611f0c565b6122b26020830185611f0c565b6122bf6040830184612240565b949350505050565b600060208201905081810360008301526122e18184611f1b565b905092915050565b60006020820190506122fe6000830184611f79565b92915050565b60006020820190506123196000830184611f88565b92915050565b600060208201905081810360008301526123398184611fc8565b905092915050565b6000602082019050818103600083015261235a81612001565b9050919050565b6000602082019050818103600083015261237a81612024565b9050919050565b6000602082019050818103600083015261239a81612047565b9050919050565b600060208201905081810360008301526123ba8161206a565b9050919050565b600060208201905081810360008301526123da8161208d565b9050919050565b600060208201905081810360008301526123fa816120b0565b9050919050565b6000602082019050818103600083015261241a816120d3565b9050919050565b6000602082019050818103600083015261243a816120f6565b9050919050565b6000602082019050818103600083015261245a81612119565b9050919050565b6000602082019050818103600083015261247a8161213c565b9050919050565b6000602082019050818103600083015261249a8161215f565b9050919050565b600060208201905081810360008301526124ba81612182565b9050919050565b600060208201905081810360008301526124da816121a5565b9050919050565b600060208201905081810360008301526124fa816121c8565b9050919050565b6000602082019050818103600083015261251a816121eb565b9050919050565b6000602082019050818103600083015261253a8161220e565b9050919050565b60006020820190506125566000830184612240565b92915050565b6000602082019050612571600083018461224f565b92915050565b6000612581612592565b905061258d8282612811565b919050565b6000604051905090565b600067ffffffffffffffff8211156125b7576125b66128e9565b5b6125c082612918565b9050602081019050919050565b6000819050602082019050919050565b600081519050919050565b600081519050919050565b600081519050919050565b6000602082019050919050565b600082825260208201905092915050565b600081905092915050565b600082825260208201905092915050565b600061264382612786565b915061264e83612786565b9250827fffffffffffffffffffffffffffffffffffffffffffffffffffffffffffffffff038211156126835761268261288b565b5b828201905092915050565b600061269982612786565b91506126a483612786565b9250817fffffffffffffffffffffffffffffffffffffffffffffffffffffffffffffffff04831182151516156126dd576126dc61288b565b5b828202905092915050565b60006126f382612786565b91506126fe83612786565b9250828210156127115761271061288b565b5b828203905092915050565b600061272782612766565b9050919050565b60008115159050919050565b60007fffffffff0000000000000000000000000000000000000000000000000000000082169050919050565b600073ffffffffffffffffffffffffffffffffffffffff82169050919050565b6000819050919050565b600060ff82169050919050565b82818337600083830152505050565b60005b838110156127ca5780820151818401526020810190506127af565b838111156127d9576000848401525b50505050565b600060028204905060018216806127f757607f821691505b6020821081141561280b5761280a6128ba565b5b50919050565b61281a82612918565b810181811067ffffffffffffffff82111715612839576128386128e9565b5b80604052505050565b600061284d82612786565b91507fffffffffffffffffffffffffffffffffffffffffffffffffffffffffffffffff8214156128805761287f61288b565b5b600182019050919050565b7f4e487b7100000000000000000000000000000000000000000000000000000000600052601160045260246000fd5b7f4e487b7100000000000000000000000000000000000000000000000000000000600052602260045260246000fd5b7f4e487b7100000000000000000000000000000000000000000000000000000000600052604160045260246000fd5b6000601f19601f8301169050919050565b7f45524332303a207472616e7366657220746f20746865207a65726f206164647260008201527f6573730000000000000000000000000000000000000000000000000000000000602082015250565b7f45524332303a206275726e20616d6f756e7420657863656564732062616c616e60008201527f6365000000000000000000000000000000000000000000000000000000000000602082015250565b7f45524332303a20617070726f766520746f20746865207a65726f20616464726560008201527f7373000000000000000000000000000000000000000000000000000000000000602082015250565b7f45524332303a20696e73756666696369656e7420616c6c6f77616e6365000000600082015250565b7f45524332303a207472616e7366657220616d6f756e742065786365656473206260008201527f616c616e63650000000000000000000000000000000000000000000000000000602082015250565b7f6f6e6c792061646d696e00000000000000000000000000000000000000000000600082015250565b7f45787465726e616c2063616c6c206661696c6564000000000000000000000000600082015250565b7f45524332303a206275726e2066726f6d20746865207a65726f2061646472657360008201527f7300000000000000000000000000000000000000000000000000000000000000602082015250565b7f617373657441646472657373206e6f7420736574000000000000000000000000600082015250565b7f45524332303a207472616e736665722066726f6d20746865207a65726f20616460008201527f6472657373000000000000000000000000000000000000000000000000000000602082015250565b7f45524332303a20617070726f76652066726f6d20746865207a65726f2061646460008201527f7265737300000000000000000000000000000000000000000000000000000000602082015250565b7f4e4654206e6f7420617070726f76656400000000000000000000000000000000600082015250565b7f436f6e747261637420646f6e277420686176652074686973204e46542e000000600082015250565b7f466c617368206c6f616e204e4654206e6f742070616964206261636b00000000600082015250565b7f45524332303a2064656372656173656420616c6c6f77616e63652062656c6f7760008201527f207a65726f000000000000000000000000000000000000000000000000000000602082015250565b7f45524332303a206d696e7420746f20746865207a65726f206164647265737300600082015250565b612cf28161271c565b8114612cfd57600080fd5b50565b612d0981612786565b8114612d1457600080fd5b5056fea26469706673582212203aec6fa83928b84260bb058648be2ebeaae75e1439c6968a3edabb7114d0e86364736f6c63430008010033",
  "immutableReferences": {},
  "source": "// SPDX-License-Identifier: MIT\r\n\r\n\r\npragma solidity ^0.8.0;\r\n\r\nimport \"@openzeppelin/contracts/token/ERC20/ERC20.sol\";\r\nimport \"@openzeppelin/contracts/token/ERC721/IERC721Receiver.sol\";\r\nimport \"@openzeppelin/contracts/token/ERC721/IERC721.sol\";\r\nimport \"./TokenBase.sol\";\r\n\r\n\r\ninterface IERC721ReceiverUpgradeable {\r\n    /**\r\n     * @dev Whenever an {IERC721} `tokenId` token is transferred to this contract via {IERC721-safeTransferFrom}\r\n     * by `operator` from `from`, this function is called.\r\n     *\r\n     * It must return its Solidity selector to confirm the token transfer.\r\n     * If any other value is returned or the interface is not implemented by the recipient, the transfer will be reverted.\r\n     *\r\n     * The selector can be obtained in Solidity with `IERC721.onERC721Received.selector`.\r\n     */\r\n    function onERC721Received(address operator, address from, uint256 tokenId, bytes calldata data) external returns (bytes4);\r\n}\r\n\r\n\r\ncontract ERC721SafeHolderUpgradeable is IERC721ReceiverUpgradeable {\r\n    /**\r\n     * @dev See {IERC721Receiver-onERC721Received}.\r\n     *\r\n     * Always returns `IERC721Receiver.onERC721Received.selector`.\r\n     */\r\n    function onERC721Received(\r\n        address operator,\r\n        address,\r\n        uint256,\r\n        bytes memory\r\n    ) public virtual override returns (bytes4) {\r\n        return this.onERC721Received.selector;\r\n    }\r\n}\r\n\r\n// TokenEth is NFTStableCoin\r\ncontract TokenEth is TokenBase , ERC721SafeHolderUpgradeable {\r\n    address assetAddress;\r\n    uint256 constant base = 10**18;\r\n    uint[] public AllTokenId;\r\n    constructor() TokenBase(\"ETH Token\", \"ETK\") {}  // The name of NFT stable coin\r\n\r\n    function getAllTokenId() public view returns (uint[] memory) {\r\n        return AllTokenId;\r\n    }\r\n\r\n    function isTokenIdInThisContract(uint tokenId) public view returns (bool){\r\n        return (IERC721(assetAddress).ownerOf(tokenId) == address(this));\r\n    }\r\n\r\n    function setAssetAddress(address _assetAddress) external {\r\n        require(msg.sender == admin, \"only admin\");\r\n        assetAddress = _assetAddress;\r\n    }\r\n\r\n    function getAssetAddres() public view returns (address){\r\n        return assetAddress;\r\n    }\r\n\r\n    function swapForNftStableCoin(address to , uint tokenId) public {\r\n        require(assetAddress != address(0) , 'assetAddress not set');\r\n        //ERC721 nft = ERC721(assetAddress);\r\n        require(IERC721(assetAddress).getApproved(tokenId)==address(this) , 'NFT not approved');\r\n        IERC721(assetAddress).safeTransferFrom(msg.sender, address(this), tokenId);\r\n        \r\n        //  NFT NFTuser\r\n        AllTokenId.push(tokenId);\r\n        _mint(to , base*1);\r\n\r\n    }\r\n\r\n    function redeemNftStableCoinToNft(address owner , uint tokenId) public{\r\n        require(assetAddress != address(0) , 'assetAddress not set');\r\n        //ERC721 nft = ERC721(assetAddress);\r\n        IERC721(assetAddress).safeTransferFrom(address(this), msg.sender, tokenId);\r\n\r\n        // NFTNFT\r\n        for (uint i=0; i<AllTokenId.length ; i++){\r\n            if (AllTokenId[i] ==  tokenId){\r\n                delete AllTokenId[i];\r\n                break;\r\n            }\r\n        }\r\n        _burn(owner , base*1);\r\n    }\r\n\r\n    function NFTflashloan(uint tokenId) external{\r\n        require(isTokenIdInThisContract(tokenId), \"Contract don't have this NFT.\");\r\n        IERC721(assetAddress).safeTransferFrom(address(this), msg.sender, tokenId);\r\n\r\n        (bool success,) = msg.sender.call(\r\n            abi.encodeWithSignature(\r\n                \"receiveFlashLoan(uint256)\",\r\n                tokenId\r\n            )\r\n        );\r\n        require(success, \"External call failed\");\r\n\r\n        require(isTokenIdInThisContract(tokenId), \"Flash loan NFT not paid back\");        \r\n    }\r\n\r\n\r\n}",
  "sourcePath": "C:\\Users\\Samuel Cheng\\Desktop\\Solidity-EVM-Dev-Batch-1-HW\\graduation_project\\bsc-eth-bridge\\contracts\\TokenEth.sol",
  "compiler": {
    "name": "solc",
    "version": "0.8.1+commit.df193b15.Emscripten.clang"
  },
  "schemaVersion": "3.4.5",
  "updatedAt": "2022-02-27T09:14:39.251Z",
  "networkType": "ethereum",
  "devdoc": {
    "kind": "dev",
    "methods": {
      "allowance(address,address)": {
        "details": "See {IERC20-allowance}."
      },
      "approve(address,uint256)": {
        "details": "See {IERC20-approve}. NOTE: If `amount` is the maximum `uint256`, the allowance is not updated on `transferFrom`. This is semantically equivalent to an infinite approval. Requirements: - `spender` cannot be the zero address."
      },
      "balanceOf(address)": {
        "details": "See {IERC20-balanceOf}."
      },
      "decimals()": {
        "details": "Returns the number of decimals used to get its user representation. For example, if `decimals` equals `2`, a balance of `505` tokens should be displayed to a user as `5.05` (`505 / 10 ** 2`). Tokens usually opt for a value of 18, imitating the relationship between Ether and Wei. This is the value {ERC20} uses, unless this function is overridden; NOTE: This information is only used for _display_ purposes: it in no way affects any of the arithmetic of the contract, including {IERC20-balanceOf} and {IERC20-transfer}."
      },
      "decreaseAllowance(address,uint256)": {
        "details": "Atomically decreases the allowance granted to `spender` by the caller. This is an alternative to {approve} that can be used as a mitigation for problems described in {IERC20-approve}. Emits an {Approval} event indicating the updated allowance. Requirements: - `spender` cannot be the zero address. - `spender` must have allowance for the caller of at least `subtractedValue`."
      },
      "increaseAllowance(address,uint256)": {
        "details": "Atomically increases the allowance granted to `spender` by the caller. This is an alternative to {approve} that can be used as a mitigation for problems described in {IERC20-approve}. Emits an {Approval} event indicating the updated allowance. Requirements: - `spender` cannot be the zero address."
      },
      "name()": {
        "details": "Returns the name of the token."
      },
      "onERC721Received(address,address,uint256,bytes)": {
        "details": "See {IERC721Receiver-onERC721Received}. Always returns `IERC721Receiver.onERC721Received.selector`."
      },
      "symbol()": {
        "details": "Returns the symbol of the token, usually a shorter version of the name."
      },
      "totalSupply()": {
        "details": "See {IERC20-totalSupply}."
      },
      "transfer(address,uint256)": {
        "details": "See {IERC20-transfer}. Requirements: - `to` cannot be the zero address. - the caller must have a balance of at least `amount`."
      },
      "transferFrom(address,address,uint256)": {
        "details": "See {IERC20-transferFrom}. Emits an {Approval} event indicating the updated allowance. This is not required by the EIP. See the note at the beginning of {ERC20}. NOTE: Does not update the allowance if the current allowance is the maximum `uint256`. Requirements: - `from` and `to` cannot be the zero address. - `from` must have a balance of at least `amount`. - the caller must have allowance for ``from``'s tokens of at least `amount`."
      }
    },
    "version": 1
  },
  "userdoc": {
    "kind": "user",
    "methods": {},
    "version": 1
  }
}